{
  "_format": "hh-sol-artifact-1",
  "contractName": "Crabrades",
  "sourceName": "contracts/Crabrades.sol",
  "abi": [
    {
      "inputs": [
        {
          "internalType": "string",
          "name": "baseURI",
          "type": "string"
        }
      ],
      "stateMutability": "nonpayable",
      "type": "constructor"
    },
    {
      "anonymous": false,
      "inputs": [
        {
          "indexed": true,
          "internalType": "address",
          "name": "owner",
          "type": "address"
        },
        {
          "indexed": true,
          "internalType": "address",
          "name": "approved",
          "type": "address"
        },
        {
          "indexed": true,
          "internalType": "uint256",
          "name": "tokenId",
          "type": "uint256"
        }
      ],
      "name": "Approval",
      "type": "event"
    },
    {
      "anonymous": false,
      "inputs": [
        {
          "indexed": true,
          "internalType": "address",
          "name": "owner",
          "type": "address"
        },
        {
          "indexed": true,
          "internalType": "address",
          "name": "operator",
          "type": "address"
        },
        {
          "indexed": false,
          "internalType": "bool",
          "name": "approved",
          "type": "bool"
        }
      ],
      "name": "ApprovalForAll",
      "type": "event"
    },
    {
      "anonymous": false,
      "inputs": [
        {
          "indexed": true,
          "internalType": "address",
          "name": "previousOwner",
          "type": "address"
        },
        {
          "indexed": true,
          "internalType": "address",
          "name": "newOwner",
          "type": "address"
        }
      ],
      "name": "OwnershipTransferred",
      "type": "event"
    },
    {
      "anonymous": false,
      "inputs": [
        {
          "indexed": true,
          "internalType": "address",
          "name": "from",
          "type": "address"
        },
        {
          "indexed": true,
          "internalType": "address",
          "name": "to",
          "type": "address"
        },
        {
          "indexed": true,
          "internalType": "uint256",
          "name": "tokenId",
          "type": "uint256"
        }
      ],
      "name": "Transfer",
      "type": "event"
    },
    {
      "inputs": [],
      "name": "_paused",
      "outputs": [
        {
          "internalType": "bool",
          "name": "",
          "type": "bool"
        }
      ],
      "stateMutability": "view",
      "type": "function"
    },
    {
      "inputs": [
        {
          "internalType": "uint256",
          "name": "num",
          "type": "uint256"
        }
      ],
      "name": "adopt",
      "outputs": [],
      "stateMutability": "payable",
      "type": "function"
    },
    {
      "inputs": [
        {
          "internalType": "address",
          "name": "to",
          "type": "address"
        },
        {
          "internalType": "uint256",
          "name": "tokenId",
          "type": "uint256"
        }
      ],
      "name": "approve",
      "outputs": [],
      "stateMutability": "nonpayable",
      "type": "function"
    },
    {
      "inputs": [
        {
          "internalType": "address",
          "name": "owner",
          "type": "address"
        }
      ],
      "name": "balanceOf",
      "outputs": [
        {
          "internalType": "uint256",
          "name": "",
          "type": "uint256"
        }
      ],
      "stateMutability": "view",
      "type": "function"
    },
    {
      "inputs": [
        {
          "internalType": "uint256",
          "name": "tokenId",
          "type": "uint256"
        }
      ],
      "name": "getApproved",
      "outputs": [
        {
          "internalType": "address",
          "name": "",
          "type": "address"
        }
      ],
      "stateMutability": "view",
      "type": "function"
    },
    {
      "inputs": [],
      "name": "getPrice",
      "outputs": [
        {
          "internalType": "uint256",
          "name": "",
          "type": "uint256"
        }
      ],
      "stateMutability": "view",
      "type": "function"
    },
    {
      "inputs": [
        {
          "internalType": "address",
          "name": "_to",
          "type": "address"
        },
        {
          "internalType": "uint256",
          "name": "_amount",
          "type": "uint256"
        }
      ],
      "name": "giveAway",
      "outputs": [],
      "stateMutability": "nonpayable",
      "type": "function"
    },
    {
      "inputs": [
        {
          "internalType": "address",
          "name": "owner",
          "type": "address"
        },
        {
          "internalType": "address",
          "name": "operator",
          "type": "address"
        }
      ],
      "name": "isApprovedForAll",
      "outputs": [
        {
          "internalType": "bool",
          "name": "",
          "type": "bool"
        }
      ],
      "stateMutability": "view",
      "type": "function"
    },
    {
      "inputs": [],
      "name": "name",
      "outputs": [
        {
          "internalType": "string",
          "name": "",
          "type": "string"
        }
      ],
      "stateMutability": "view",
      "type": "function"
    },
    {
      "inputs": [],
      "name": "owner",
      "outputs": [
        {
          "internalType": "address",
          "name": "",
          "type": "address"
        }
      ],
      "stateMutability": "view",
      "type": "function"
    },
    {
      "inputs": [
        {
          "internalType": "uint256",
          "name": "tokenId",
          "type": "uint256"
        }
      ],
      "name": "ownerOf",
      "outputs": [
        {
          "internalType": "address",
          "name": "",
          "type": "address"
        }
      ],
      "stateMutability": "view",
      "type": "function"
    },
    {
      "inputs": [
        {
          "internalType": "bool",
          "name": "val",
          "type": "bool"
        }
      ],
      "name": "pause",
      "outputs": [],
      "stateMutability": "nonpayable",
      "type": "function"
    },
    {
      "inputs": [],
      "name": "renounceOwnership",
      "outputs": [],
      "stateMutability": "nonpayable",
      "type": "function"
    },
    {
      "inputs": [
        {
          "internalType": "address",
          "name": "from",
          "type": "address"
        },
        {
          "internalType": "address",
          "name": "to",
          "type": "address"
        },
        {
          "internalType": "uint256",
          "name": "tokenId",
          "type": "uint256"
        }
      ],
      "name": "safeTransferFrom",
      "outputs": [],
      "stateMutability": "nonpayable",
      "type": "function"
    },
    {
      "inputs": [
        {
          "internalType": "address",
          "name": "from",
          "type": "address"
        },
        {
          "internalType": "address",
          "name": "to",
          "type": "address"
        },
        {
          "internalType": "uint256",
          "name": "tokenId",
          "type": "uint256"
        },
        {
          "internalType": "bytes",
          "name": "_data",
          "type": "bytes"
        }
      ],
      "name": "safeTransferFrom",
      "outputs": [],
      "stateMutability": "nonpayable",
      "type": "function"
    },
    {
      "inputs": [
        {
          "internalType": "address",
          "name": "operator",
          "type": "address"
        },
        {
          "internalType": "bool",
          "name": "approved",
          "type": "bool"
        }
      ],
      "name": "setApprovalForAll",
      "outputs": [],
      "stateMutability": "nonpayable",
      "type": "function"
    },
    {
      "inputs": [
        {
          "internalType": "string",
          "name": "baseURI",
          "type": "string"
        }
      ],
      "name": "setBaseURI",
      "outputs": [],
      "stateMutability": "nonpayable",
      "type": "function"
    },
    {
      "inputs": [
        {
          "internalType": "uint256",
          "name": "_newPrice",
          "type": "uint256"
        }
      ],
      "name": "setPrice",
      "outputs": [],
      "stateMutability": "nonpayable",
      "type": "function"
    },
    {
      "inputs": [
        {
          "internalType": "bytes4",
          "name": "interfaceId",
          "type": "bytes4"
        }
      ],
      "name": "supportsInterface",
      "outputs": [
        {
          "internalType": "bool",
          "name": "",
          "type": "bool"
        }
      ],
      "stateMutability": "view",
      "type": "function"
    },
    {
      "inputs": [],
      "name": "symbol",
      "outputs": [
        {
          "internalType": "string",
          "name": "",
          "type": "string"
        }
      ],
      "stateMutability": "view",
      "type": "function"
    },
    {
      "inputs": [
        {
          "internalType": "uint256",
          "name": "index",
          "type": "uint256"
        }
      ],
      "name": "tokenByIndex",
      "outputs": [
        {
          "internalType": "uint256",
          "name": "",
          "type": "uint256"
        }
      ],
      "stateMutability": "view",
      "type": "function"
    },
    {
      "inputs": [
        {
          "internalType": "address",
          "name": "owner",
          "type": "address"
        },
        {
          "internalType": "uint256",
          "name": "index",
          "type": "uint256"
        }
      ],
      "name": "tokenOfOwnerByIndex",
      "outputs": [
        {
          "internalType": "uint256",
          "name": "",
          "type": "uint256"
        }
      ],
      "stateMutability": "view",
      "type": "function"
    },
    {
      "inputs": [
        {
          "internalType": "uint256",
          "name": "tokenId",
          "type": "uint256"
        }
      ],
      "name": "tokenURI",
      "outputs": [
        {
          "internalType": "string",
          "name": "",
          "type": "string"
        }
      ],
      "stateMutability": "view",
      "type": "function"
    },
    {
      "inputs": [],
      "name": "totalSupply",
      "outputs": [
        {
          "internalType": "uint256",
          "name": "",
          "type": "uint256"
        }
      ],
      "stateMutability": "view",
      "type": "function"
    },
    {
      "inputs": [
        {
          "internalType": "address",
          "name": "from",
          "type": "address"
        },
        {
          "internalType": "address",
          "name": "to",
          "type": "address"
        },
        {
          "internalType": "uint256",
          "name": "tokenId",
          "type": "uint256"
        }
      ],
      "name": "transferFrom",
      "outputs": [],
      "stateMutability": "nonpayable",
      "type": "function"
    },
    {
      "inputs": [
        {
          "internalType": "address",
          "name": "newOwner",
          "type": "address"
        }
      ],
      "name": "transferOwnership",
      "outputs": [],
      "stateMutability": "nonpayable",
      "type": "function"
    },
    {
      "inputs": [
        {
          "internalType": "address",
          "name": "_owner",
          "type": "address"
        }
      ],
      "name": "walletOfOwner",
      "outputs": [
        {
          "internalType": "uint256[]",
          "name": "",
          "type": "uint256[]"
        }
      ],
      "stateMutability": "view",
      "type": "function"
    },
    {
      "inputs": [],
      "name": "withdrawAll",
      "outputs": [],
      "stateMutability": "payable",
      "type": "function"
    }
  ],
  "bytecode": "0x60806040526007600c556023600d55600c54600d54620000209190620012b0565b600e5566470de4df820000600f556001601060006101000a81548160ff02191690831515021790555073dc4bee14df2a04d9c52df2103adf39e524788ceb601060016101000a81548173ffffffffffffffffffffffffffffffffffffffff021916908373ffffffffffffffffffffffffffffffffffffffff160217905550348015620000ab57600080fd5b50604051620057e7380380620057e78339818101604052810190620000d1919062000f5e565b6040518060400160405280600981526020017f43726162726164657300000000000000000000000000000000000000000000008152506040518060400160405280600481526020017f435241420000000000000000000000000000000000000000000000000000000081525081600090805190602001906200015592919062000df9565b5080600190805190602001906200016e92919062000df9565b50505062000191620001856200020260201b60201c565b6200020a60201b60201c565b620001a281620002d060201b60201c565b60005b600c54811015620001fa57620001e4601060019054906101000a900473ffffffffffffffffffffffffffffffffffffffff16826200037b60201b60201c565b8080620001f190620013f7565b915050620001a5565b505062001616565b600033905090565b6000600a60009054906101000a900473ffffffffffffffffffffffffffffffffffffffff16905081600a60006101000a81548173ffffffffffffffffffffffffffffffffffffffff021916908373ffffffffffffffffffffffffffffffffffffffff1602179055508173ffffffffffffffffffffffffffffffffffffffff168173ffffffffffffffffffffffffffffffffffffffff167f8be0079c531659141344cd1fd0a4f28419497f9722a3daafe3b4186f6b6457e060405160405180910390a35050565b620002e06200020260201b60201c565b73ffffffffffffffffffffffffffffffffffffffff1662000306620003a160201b60201c565b73ffffffffffffffffffffffffffffffffffffffff16146200035f576040517f08c379a00000000000000000000000000000000000000000000000000000000081526004016200035690620011a5565b60405180910390fd5b80600b90805190602001906200037792919062000df9565b5050565b6200039d828260405180602001604052806000815250620003cb60201b60201c565b5050565b6000600a60009054906101000a900473ffffffffffffffffffffffffffffffffffffffff16905090565b620003dd83836200043960201b60201c565b620003f260008484846200061f60201b60201c565b62000434576040517f08c379a00000000000000000000000000000000000000000000000000000000081526004016200042b906200111d565b60405180910390fd5b505050565b600073ffffffffffffffffffffffffffffffffffffffff168273ffffffffffffffffffffffffffffffffffffffff161415620004ac576040517f08c379a0000000000000000000000000000000000000000000000000000000008152600401620004a39062001183565b60405180910390fd5b620004bd81620007d960201b60201c565b1562000500576040517f08c379a0000000000000000000000000000000000000000000000000000000008152600401620004f7906200113f565b60405180910390fd5b62000514600083836200084560201b60201c565b6001600360008473ffffffffffffffffffffffffffffffffffffffff1673ffffffffffffffffffffffffffffffffffffffff168152602001908152602001600020600082825462000566919062001253565b92505081905550816002600083815260200190815260200160002060006101000a81548173ffffffffffffffffffffffffffffffffffffffff021916908373ffffffffffffffffffffffffffffffffffffffff160217905550808273ffffffffffffffffffffffffffffffffffffffff16600073ffffffffffffffffffffffffffffffffffffffff167fddf252ad1be2c89b69c2b068fc378daa952ba7f163c4a11628f55a4df523b3ef60405160405180910390a45050565b60006200064d8473ffffffffffffffffffffffffffffffffffffffff166200098c60201b6200184b1760201c565b15620007cc578373ffffffffffffffffffffffffffffffffffffffff1663150b7a026200067f6200020260201b60201c565b8786866040518563ffffffff1660e01b8152600401620006a39493929190620010c9565b602060405180830381600087803b158015620006be57600080fd5b505af1925050508015620006f257506040513d601f19601f82011682018060405250810190620006ef919062000f32565b60015b6200077b573d806000811462000725576040519150601f19603f3d011682016040523d82523d6000602084013e6200072a565b606091505b5060008151141562000773576040517f08c379a00000000000000000000000000000000000000000000000000000000081526004016200076a906200111d565b60405180910390fd5b805181602001fd5b63150b7a0260e01b7bffffffffffffffffffffffffffffffffffffffffffffffffffffffff1916817bffffffffffffffffffffffffffffffffffffffffffffffffffffffff191614915050620007d1565b600190505b949350505050565b60008073ffffffffffffffffffffffffffffffffffffffff166002600084815260200190815260200160002060009054906101000a900473ffffffffffffffffffffffffffffffffffffffff1673ffffffffffffffffffffffffffffffffffffffff1614159050919050565b6200085d8383836200099f60201b6200185e1760201c565b600073ffffffffffffffffffffffffffffffffffffffff168373ffffffffffffffffffffffffffffffffffffffff161415620008aa57620008a481620009a460201b60201c565b620008f2565b8173ffffffffffffffffffffffffffffffffffffffff168373ffffffffffffffffffffffffffffffffffffffff1614620008f157620008f08382620009ed60201b60201c565b5b5b600073ffffffffffffffffffffffffffffffffffffffff168273ffffffffffffffffffffffffffffffffffffffff1614156200093f57620009398162000b6a60201b60201c565b62000987565b8273ffffffffffffffffffffffffffffffffffffffff168273ffffffffffffffffffffffffffffffffffffffff1614620009865762000985828262000cb260201b60201c565b5b5b505050565b600080823b905060008111915050919050565b505050565b6008805490506009600083815260200190815260200160002081905550600881908060018154018082558091505060019003906000526020600020016000909190919091505550565b6000600162000a078462000d3e60201b62000e1a1760201c565b62000a139190620012b0565b905060006007600084815260200190815260200160002054905081811462000af9576000600660008673ffffffffffffffffffffffffffffffffffffffff1673ffffffffffffffffffffffffffffffffffffffff168152602001908152602001600020600084815260200190815260200160002054905080600660008773ffffffffffffffffffffffffffffffffffffffff1673ffffffffffffffffffffffffffffffffffffffff168152602001908152602001600020600084815260200190815260200160002081905550816007600083815260200190815260200160002081905550505b6007600084815260200190815260200160002060009055600660008573ffffffffffffffffffffffffffffffffffffffff1673ffffffffffffffffffffffffffffffffffffffff16815260200190815260200160002060008381526020019081526020016000206000905550505050565b6000600160088054905062000b809190620012b0565b905060006009600084815260200190815260200160002054905060006008838154811062000bd7577f4e487b7100000000000000000000000000000000000000000000000000000000600052603260045260246000fd5b90600052602060002001549050806008838154811062000c20577f4e487b7100000000000000000000000000000000000000000000000000000000600052603260045260246000fd5b90600052602060002001819055508160096000838152602001908152602001600020819055506009600085815260200190815260200160002060009055600880548062000c96577f4e487b7100000000000000000000000000000000000000000000000000000000600052603160045260246000fd5b6001900381819060005260206000200160009055905550505050565b600062000cca8362000d3e60201b62000e1a1760201c565b905081600660008573ffffffffffffffffffffffffffffffffffffffff1673ffffffffffffffffffffffffffffffffffffffff168152602001908152602001600020600083815260200190815260200160002081905550806007600084815260200190815260200160002081905550505050565b60008073ffffffffffffffffffffffffffffffffffffffff168273ffffffffffffffffffffffffffffffffffffffff16141562000db2576040517f08c379a000000000000000000000000000000000000000000000000000000000815260040162000da99062001161565b60405180910390fd5b600360008373ffffffffffffffffffffffffffffffffffffffff1673ffffffffffffffffffffffffffffffffffffffff168152602001908152602001600020549050919050565b82805462000e07906200138b565b90600052602060002090601f01602090048101928262000e2b576000855562000e77565b82601f1062000e4657805160ff191683800117855562000e77565b8280016001018555821562000e77579182015b8281111562000e7657825182559160200191906001019062000e59565b5b50905062000e86919062000e8a565b5090565b5b8082111562000ea557600081600090555060010162000e8b565b5090565b600062000ec062000eba84620011f0565b620011c7565b90508281526020810184848401111562000ed957600080fd5b62000ee684828562001355565b509392505050565b60008151905062000eff81620015fc565b92915050565b600082601f83011262000f1757600080fd5b815162000f2984826020860162000ea9565b91505092915050565b60006020828403121562000f4557600080fd5b600062000f558482850162000eee565b91505092915050565b60006020828403121562000f7157600080fd5b600082015167ffffffffffffffff81111562000f8c57600080fd5b62000f9a8482850162000f05565b91505092915050565b62000fae81620012eb565b82525050565b600062000fc18262001226565b62000fcd818562001231565b935062000fdf81856020860162001355565b62000fea81620014d2565b840191505092915050565b60006200100460328362001242565b91506200101182620014e3565b604082019050919050565b60006200102b601c8362001242565b9150620010388262001532565b602082019050919050565b600062001052602a8362001242565b91506200105f826200155b565b604082019050919050565b60006200107960208362001242565b91506200108682620015aa565b602082019050919050565b6000620010a060208362001242565b9150620010ad82620015d3565b602082019050919050565b620010c3816200134b565b82525050565b6000608082019050620010e0600083018762000fa3565b620010ef602083018662000fa3565b620010fe6040830185620010b8565b818103606083015262001112818462000fb4565b905095945050505050565b60006020820190508181036000830152620011388162000ff5565b9050919050565b600060208201905081810360008301526200115a816200101c565b9050919050565b600060208201905081810360008301526200117c8162001043565b9050919050565b600060208201905081810360008301526200119e816200106a565b9050919050565b60006020820190508181036000830152620011c08162001091565b9050919050565b6000620011d3620011e6565b9050620011e18282620013c1565b919050565b6000604051905090565b600067ffffffffffffffff8211156200120e576200120d620014a3565b5b6200121982620014d2565b9050602081019050919050565b600081519050919050565b600082825260208201905092915050565b600082825260208201905092915050565b600062001260826200134b565b91506200126d836200134b565b9250827fffffffffffffffffffffffffffffffffffffffffffffffffffffffffffffffff03821115620012a557620012a462001445565b5b828201905092915050565b6000620012bd826200134b565b9150620012ca836200134b565b925082821015620012e057620012df62001445565b5b828203905092915050565b6000620012f8826200132b565b9050919050565b60007fffffffff0000000000000000000000000000000000000000000000000000000082169050919050565b600073ffffffffffffffffffffffffffffffffffffffff82169050919050565b6000819050919050565b60005b838110156200137557808201518184015260208101905062001358565b8381111562001385576000848401525b50505050565b60006002820490506001821680620013a457607f821691505b60208210811415620013bb57620013ba62001474565b5b50919050565b620013cc82620014d2565b810181811067ffffffffffffffff82111715620013ee57620013ed620014a3565b5b80604052505050565b600062001404826200134b565b91507fffffffffffffffffffffffffffffffffffffffffffffffffffffffffffffffff8214156200143a576200143962001445565b5b600182019050919050565b7f4e487b7100000000000000000000000000000000000000000000000000000000600052601160045260246000fd5b7f4e487b7100000000000000000000000000000000000000000000000000000000600052602260045260246000fd5b7f4e487b7100000000000000000000000000000000000000000000000000000000600052604160045260246000fd5b6000601f19601f8301169050919050565b7f4552433732313a207472616e7366657220746f206e6f6e20455243373231526560008201527f63656976657220696d706c656d656e7465720000000000000000000000000000602082015250565b7f4552433732313a20746f6b656e20616c7265616479206d696e74656400000000600082015250565b7f4552433732313a2062616c616e636520717565727920666f7220746865207a6560008201527f726f206164647265737300000000000000000000000000000000000000000000602082015250565b7f4552433732313a206d696e7420746f20746865207a65726f2061646472657373600082015250565b7f4f776e61626c653a2063616c6c6572206973206e6f7420746865206f776e6572600082015250565b6200160781620012ff565b81146200161357600080fd5b50565b6141c180620016266000396000f3fe6080604052600436106101b75760003560e01c806370a08231116100ec57806398d5fdca1161008a578063c87b56dd11610064578063c87b56dd146105ee578063ca8001441461062b578063e985e9c514610654578063f2fde38b14610691576101b7565b806398d5fdca14610571578063a22cb4651461059c578063b88d4fde146105c5576101b7565b80638588b2c5116100c65780638588b2c5146104d65780638da5cb5b146104f257806391b7f5ed1461051d57806395d89b4114610546576101b7565b806370a0823114610478578063715018a6146104b5578063853828b6146104cc576101b7565b806323b872dd11610159578063438b630011610133578063438b6300146103985780634f6ccce7146103d557806355f804b3146104125780636352211e1461043b576101b7565b806323b872dd146103095780632f745c591461033257806342842e0e1461036f576101b7565b8063081812fc11610195578063081812fc1461024d578063095ea7b31461028a57806316c61ccc146102b357806318160ddd146102de576101b7565b806301ffc9a7146101bc57806302329a29146101f957806306fdde0314610222575b600080fd5b3480156101c857600080fd5b506101e360048036038101906101de9190612d8d565b6106ba565b6040516101f09190613370565b60405180910390f35b34801561020557600080fd5b50610220600480360381019061021b9190612d64565b610734565b005b34801561022e57600080fd5b506102376107cd565b604051610244919061338b565b60405180910390f35b34801561025957600080fd5b50610274600480360381019061026f9190612e20565b61085f565b60405161028191906132e7565b60405180910390f35b34801561029657600080fd5b506102b160048036038101906102ac9190612d28565b6108e4565b005b3480156102bf57600080fd5b506102c86109fc565b6040516102d59190613370565b60405180910390f35b3480156102ea57600080fd5b506102f3610a0f565b604051610300919061368d565b60405180910390f35b34801561031557600080fd5b50610330600480360381019061032b9190612c22565b610a1c565b005b34801561033e57600080fd5b5061035960048036038101906103549190612d28565b610a7c565b604051610366919061368d565b60405180910390f35b34801561037b57600080fd5b5061039660048036038101906103919190612c22565b610b21565b005b3480156103a457600080fd5b506103bf60048036038101906103ba9190612bbd565b610b41565b6040516103cc919061334e565b60405180910390f35b3480156103e157600080fd5b506103fc60048036038101906103f79190612e20565b610c3b565b604051610409919061368d565b60405180910390f35b34801561041e57600080fd5b5061043960048036038101906104349190612ddf565b610cd2565b005b34801561044757600080fd5b50610462600480360381019061045d9190612e20565b610d68565b60405161046f91906132e7565b60405180910390f35b34801561048457600080fd5b5061049f600480360381019061049a9190612bbd565b610e1a565b6040516104ac919061368d565b60405180910390f35b3480156104c157600080fd5b506104ca610ed2565b005b6104d4610f5a565b005b6104f060048036038101906104eb9190612e20565b611038565b005b3480156104fe57600080fd5b506105076111c8565b60405161051491906132e7565b60405180910390f35b34801561052957600080fd5b50610544600480360381019061053f9190612e20565b6111f2565b005b34801561055257600080fd5b5061055b611278565b604051610568919061338b565b60405180910390f35b34801561057d57600080fd5b5061058661130a565b604051610593919061368d565b60405180910390f35b3480156105a857600080fd5b506105c360048036038101906105be9190612cec565b611314565b005b3480156105d157600080fd5b506105ec60048036038101906105e79190612c71565b611495565b005b3480156105fa57600080fd5b5061061560048036038101906106109190612e20565b6114f7565b604051610622919061338b565b60405180910390f35b34801561063757600080fd5b50610652600480360381019061064d9190612d28565b61159e565b005b34801561066057600080fd5b5061067b60048036038101906106769190612be6565b6116bf565b6040516106889190613370565b60405180910390f35b34801561069d57600080fd5b506106b860048036038101906106b39190612bbd565b611753565b005b60007f780e9d63000000000000000000000000000000000000000000000000000000007bffffffffffffffffffffffffffffffffffffffffffffffffffffffff1916827bffffffffffffffffffffffffffffffffffffffffffffffffffffffff1916148061072d575061072c82611863565b5b9050919050565b61073c611945565b73ffffffffffffffffffffffffffffffffffffffff1661075a6111c8565b73ffffffffffffffffffffffffffffffffffffffff16146107b0576040517f08c379a00000000000000000000000000000000000000000000000000000000081526004016107a79061358d565b60405180910390fd5b80601060006101000a81548160ff02191690831515021790555050565b6060600080546107dc90613976565b80601f016020809104026020016040519081016040528092919081815260200182805461080890613976565b80156108555780601f1061082a57610100808354040283529160200191610855565b820191906000526020600020905b81548152906001019060200180831161083857829003601f168201915b5050505050905090565b600061086a8261194d565b6108a9576040517f08c379a00000000000000000000000000000000000000000000000000000000081526004016108a09061356d565b60405180910390fd5b6004600083815260200190815260200160002060009054906101000a900473ffffffffffffffffffffffffffffffffffffffff169050919050565b60006108ef82610d68565b90508073ffffffffffffffffffffffffffffffffffffffff168373ffffffffffffffffffffffffffffffffffffffff161415610960576040517f08c379a00000000000000000000000000000000000000000000000000000000081526004016109579061360d565b60405180910390fd5b8073ffffffffffffffffffffffffffffffffffffffff1661097f611945565b73ffffffffffffffffffffffffffffffffffffffff1614806109ae57506109ad816109a8611945565b6116bf565b5b6109ed576040517f08c379a00000000000000000000000000000000000000000000000000000000081526004016109e4906134cd565b60405180910390fd5b6109f783836119b9565b505050565b601060009054906101000a900460ff1681565b6000600880549050905090565b610a2d610a27611945565b82611a72565b610a6c576040517f08c379a0000000000000000000000000000000000000000000000000000000008152600401610a639061364d565b60405180910390fd5b610a77838383611b50565b505050565b6000610a8783610e1a565b8210610ac8576040517f08c379a0000000000000000000000000000000000000000000000000000000008152600401610abf906133cd565b60405180910390fd5b600660008473ffffffffffffffffffffffffffffffffffffffff1673ffffffffffffffffffffffffffffffffffffffff168152602001908152602001600020600083815260200190815260200160002054905092915050565b610b3c83838360405180602001604052806000815250611495565b505050565b60606000610b4e83610e1a565b905060008167ffffffffffffffff811115610b92577f4e487b7100000000000000000000000000000000000000000000000000000000600052604160045260246000fd5b604051908082528060200260200182016040528015610bc05781602001602082028036833780820191505090505b50905060005b82811015610c3057610bd88582610a7c565b828281518110610c11577f4e487b7100000000000000000000000000000000000000000000000000000000600052603260045260246000fd5b6020026020010181815250508080610c28906139d9565b915050610bc6565b508092505050919050565b6000610c45610a0f565b8210610c86576040517f08c379a0000000000000000000000000000000000000000000000000000000008152600401610c7d9061366d565b60405180910390fd5b60088281548110610cc0577f4e487b7100000000000000000000000000000000000000000000000000000000600052603260045260246000fd5b90600052602060002001549050919050565b610cda611945565b73ffffffffffffffffffffffffffffffffffffffff16610cf86111c8565b73ffffffffffffffffffffffffffffffffffffffff1614610d4e576040517f08c379a0000000000000000000000000000000000000000000000000000000008152600401610d459061358d565b60405180910390fd5b80600b9080519060200190610d649291906129e1565b5050565b6000806002600084815260200190815260200160002060009054906101000a900473ffffffffffffffffffffffffffffffffffffffff169050600073ffffffffffffffffffffffffffffffffffffffff168173ffffffffffffffffffffffffffffffffffffffff161415610e11576040517f08c379a0000000000000000000000000000000000000000000000000000000008152600401610e089061350d565b60405180910390fd5b80915050919050565b60008073ffffffffffffffffffffffffffffffffffffffff168273ffffffffffffffffffffffffffffffffffffffff161415610e8b576040517f08c379a0000000000000000000000000000000000000000000000000000000008152600401610e82906134ed565b60405180910390fd5b600360008373ffffffffffffffffffffffffffffffffffffffff1673ffffffffffffffffffffffffffffffffffffffff168152602001908152602001600020549050919050565b610eda611945565b73ffffffffffffffffffffffffffffffffffffffff16610ef86111c8565b73ffffffffffffffffffffffffffffffffffffffff1614610f4e576040517f08c379a0000000000000000000000000000000000000000000000000000000008152600401610f459061358d565b60405180910390fd5b610f586000611dac565b565b610f62611945565b73ffffffffffffffffffffffffffffffffffffffff16610f806111c8565b73ffffffffffffffffffffffffffffffffffffffff1614610fd6576040517f08c379a0000000000000000000000000000000000000000000000000000000008152600401610fcd9061358d565b60405180910390fd5b601060019054906101000a900473ffffffffffffffffffffffffffffffffffffffff1673ffffffffffffffffffffffffffffffffffffffff166108fc479081150290604051600060405180830381858888f1935050505061103657600080fd5b565b6000611042610a0f565b9050601060009054906101000a900460ff1615611094576040517f08c379a000000000000000000000000000000000000000000000000000000000815260040161108b906133ad565b60405180910390fd5b601f82106110d7576040517f08c379a00000000000000000000000000000000000000000000000000000000081526004016110ce906135ed565b60405180910390fd5b600e546127106110e7919061388c565b82826110f391906137ab565b10611133576040517f08c379a000000000000000000000000000000000000000000000000000000000815260040161112a906134ad565b60405180910390fd5b81600f546111419190613832565b341015611183576040517f08c379a000000000000000000000000000000000000000000000000000000000815260040161117a9061362d565b60405180910390fd5b60005b828110156111c3576111b03382600e54856111a191906137ab565b6111ab91906137ab565b611e72565b80806111bb906139d9565b915050611186565b505050565b6000600a60009054906101000a900473ffffffffffffffffffffffffffffffffffffffff16905090565b6111fa611945565b73ffffffffffffffffffffffffffffffffffffffff166112186111c8565b73ffffffffffffffffffffffffffffffffffffffff161461126e576040517f08c379a00000000000000000000000000000000000000000000000000000000081526004016112659061358d565b60405180910390fd5b80600f8190555050565b60606001805461128790613976565b80601f01602080910402602001604051908101604052809291908181526020018280546112b390613976565b80156113005780601f106112d557610100808354040283529160200191611300565b820191906000526020600020905b8154815290600101906020018083116112e357829003601f168201915b5050505050905090565b6000600f54905090565b61131c611945565b73ffffffffffffffffffffffffffffffffffffffff168273ffffffffffffffffffffffffffffffffffffffff16141561138a576040517f08c379a00000000000000000000000000000000000000000000000000000000081526004016113819061346d565b60405180910390fd5b8060056000611397611945565b73ffffffffffffffffffffffffffffffffffffffff1673ffffffffffffffffffffffffffffffffffffffff16815260200190815260200160002060008473ffffffffffffffffffffffffffffffffffffffff1673ffffffffffffffffffffffffffffffffffffffff16815260200190815260200160002060006101000a81548160ff0219169083151502179055508173ffffffffffffffffffffffffffffffffffffffff16611444611945565b73ffffffffffffffffffffffffffffffffffffffff167f17307eab39ab6107e8899845ad3d59bd9653f200f220920489ca2b5937696c31836040516114899190613370565b60405180910390a35050565b6114a66114a0611945565b83611a72565b6114e5576040517f08c379a00000000000000000000000000000000000000000000000000000000081526004016114dc9061364d565b60405180910390fd5b6114f184848484611e90565b50505050565b60606115028261194d565b611541576040517f08c379a0000000000000000000000000000000000000000000000000000000008152600401611538906135cd565b60405180910390fd5b600061154b611eec565b9050600081511161156b5760405180602001604052806000815250611596565b8061157584611f7e565b6040516020016115869291906132c3565b6040516020818303038152906040525b915050919050565b6115a6611945565b73ffffffffffffffffffffffffffffffffffffffff166115c46111c8565b73ffffffffffffffffffffffffffffffffffffffff161461161a576040517f08c379a00000000000000000000000000000000000000000000000000000000081526004016116119061358d565b60405180910390fd5b600e5481111561165f576040517f08c379a00000000000000000000000000000000000000000000000000000000081526004016116569061352d565b60405180910390fd5b60005b818110156116a15761168e8382600e54600d5461167f919061388c565b61168991906137ab565b611e72565b8080611699906139d9565b915050611662565b5080600e60008282546116b4919061388c565b925050819055505050565b6000600560008473ffffffffffffffffffffffffffffffffffffffff1673ffffffffffffffffffffffffffffffffffffffff16815260200190815260200160002060008373ffffffffffffffffffffffffffffffffffffffff1673ffffffffffffffffffffffffffffffffffffffff16815260200190815260200160002060009054906101000a900460ff16905092915050565b61175b611945565b73ffffffffffffffffffffffffffffffffffffffff166117796111c8565b73ffffffffffffffffffffffffffffffffffffffff16146117cf576040517f08c379a00000000000000000000000000000000000000000000000000000000081526004016117c69061358d565b60405180910390fd5b600073ffffffffffffffffffffffffffffffffffffffff168173ffffffffffffffffffffffffffffffffffffffff16141561183f576040517f08c379a00000000000000000000000000000000000000000000000000000000081526004016118369061340d565b60405180910390fd5b61184881611dac565b50565b600080823b905060008111915050919050565b505050565b60007f80ac58cd000000000000000000000000000000000000000000000000000000007bffffffffffffffffffffffffffffffffffffffffffffffffffffffff1916827bffffffffffffffffffffffffffffffffffffffffffffffffffffffff1916148061192e57507f5b5e139f000000000000000000000000000000000000000000000000000000007bffffffffffffffffffffffffffffffffffffffffffffffffffffffff1916827bffffffffffffffffffffffffffffffffffffffffffffffffffffffff1916145b8061193e575061193d8261212b565b5b9050919050565b600033905090565b60008073ffffffffffffffffffffffffffffffffffffffff166002600084815260200190815260200160002060009054906101000a900473ffffffffffffffffffffffffffffffffffffffff1673ffffffffffffffffffffffffffffffffffffffff1614159050919050565b816004600083815260200190815260200160002060006101000a81548173ffffffffffffffffffffffffffffffffffffffff021916908373ffffffffffffffffffffffffffffffffffffffff160217905550808273ffffffffffffffffffffffffffffffffffffffff16611a2c83610d68565b73ffffffffffffffffffffffffffffffffffffffff167f8c5be1e5ebec7d5bd14f71427d1e84f3dd0314c0f7b2291e5b200ac8c7c3b92560405160405180910390a45050565b6000611a7d8261194d565b611abc576040517f08c379a0000000000000000000000000000000000000000000000000000000008152600401611ab39061348d565b60405180910390fd5b6000611ac783610d68565b90508073ffffffffffffffffffffffffffffffffffffffff168473ffffffffffffffffffffffffffffffffffffffff161480611b3657508373ffffffffffffffffffffffffffffffffffffffff16611b1e8461085f565b73ffffffffffffffffffffffffffffffffffffffff16145b80611b475750611b4681856116bf565b5b91505092915050565b8273ffffffffffffffffffffffffffffffffffffffff16611b7082610d68565b73ffffffffffffffffffffffffffffffffffffffff1614611bc6576040517f08c379a0000000000000000000000000000000000000000000000000000000008152600401611bbd906135ad565b60405180910390fd5b600073ffffffffffffffffffffffffffffffffffffffff168273ffffffffffffffffffffffffffffffffffffffff161415611c36576040517f08c379a0000000000000000000000000000000000000000000000000000000008152600401611c2d9061344d565b60405180910390fd5b611c41838383612195565b611c4c6000826119b9565b6001600360008573ffffffffffffffffffffffffffffffffffffffff1673ffffffffffffffffffffffffffffffffffffffff1681526020019081526020016000206000828254611c9c919061388c565b925050819055506001600360008473ffffffffffffffffffffffffffffffffffffffff1673ffffffffffffffffffffffffffffffffffffffff1681526020019081526020016000206000828254611cf391906137ab565b92505081905550816002600083815260200190815260200160002060006101000a81548173ffffffffffffffffffffffffffffffffffffffff021916908373ffffffffffffffffffffffffffffffffffffffff160217905550808273ffffffffffffffffffffffffffffffffffffffff168473ffffffffffffffffffffffffffffffffffffffff167fddf252ad1be2c89b69c2b068fc378daa952ba7f163c4a11628f55a4df523b3ef60405160405180910390a4505050565b6000600a60009054906101000a900473ffffffffffffffffffffffffffffffffffffffff16905081600a60006101000a81548173ffffffffffffffffffffffffffffffffffffffff021916908373ffffffffffffffffffffffffffffffffffffffff1602179055508173ffffffffffffffffffffffffffffffffffffffff168173ffffffffffffffffffffffffffffffffffffffff167f8be0079c531659141344cd1fd0a4f28419497f9722a3daafe3b4186f6b6457e060405160405180910390a35050565b611e8c8282604051806020016040528060008152506122a9565b5050565b611e9b848484611b50565b611ea784848484612304565b611ee6576040517f08c379a0000000000000000000000000000000000000000000000000000000008152600401611edd906133ed565b60405180910390fd5b50505050565b6060600b8054611efb90613976565b80601f0160208091040260200160405190810160405280929190818152602001828054611f2790613976565b8015611f745780601f10611f4957610100808354040283529160200191611f74565b820191906000526020600020905b815481529060010190602001808311611f5757829003601f168201915b5050505050905090565b60606000821415611fc6576040518060400160405280600181526020017f30000000000000000000000000000000000000000000000000000000000000008152509050612126565b600082905060005b60008214611ff8578080611fe1906139d9565b915050600a82611ff19190613801565b9150611fce565b60008167ffffffffffffffff81111561203a577f4e487b7100000000000000000000000000000000000000000000000000000000600052604160045260246000fd5b6040519080825280601f01601f19166020018201604052801561206c5781602001600182028036833780820191505090505b5090505b6000851461211f57600182612085919061388c565b9150600a856120949190613a22565b60306120a091906137ab565b60f81b8183815181106120dc577f4e487b7100000000000000000000000000000000000000000000000000000000600052603260045260246000fd5b60200101907effffffffffffffffffffffffffffffffffffffffffffffffffffffffffffff1916908160001a905350600a856121189190613801565b9450612070565b8093505050505b919050565b60007f01ffc9a7000000000000000000000000000000000000000000000000000000007bffffffffffffffffffffffffffffffffffffffffffffffffffffffff1916827bffffffffffffffffffffffffffffffffffffffffffffffffffffffff1916149050919050565b6121a083838361185e565b600073ffffffffffffffffffffffffffffffffffffffff168373ffffffffffffffffffffffffffffffffffffffff1614156121e3576121de8161249b565b612222565b8173ffffffffffffffffffffffffffffffffffffffff168373ffffffffffffffffffffffffffffffffffffffff16146122215761222083826124e4565b5b5b600073ffffffffffffffffffffffffffffffffffffffff168273ffffffffffffffffffffffffffffffffffffffff1614156122655761226081612651565b6122a4565b8273ffffffffffffffffffffffffffffffffffffffff168273ffffffffffffffffffffffffffffffffffffffff16146122a3576122a28282612794565b5b5b505050565b6122b38383612813565b6122c06000848484612304565b6122ff576040517f08c379a00000000000000000000000000000000000000000000000000000000081526004016122f6906133ed565b60405180910390fd5b505050565b60006123258473ffffffffffffffffffffffffffffffffffffffff1661184b565b1561248e578373ffffffffffffffffffffffffffffffffffffffff1663150b7a0261234e611945565b8786866040518563ffffffff1660e01b81526004016123709493929190613302565b602060405180830381600087803b15801561238a57600080fd5b505af19250505080156123bb57506040513d601f19601f820116820180604052508101906123b89190612db6565b60015b61243e573d80600081146123eb576040519150601f19603f3d011682016040523d82523d6000602084013e6123f0565b606091505b50600081511415612436576040517f08c379a000000000000000000000000000000000000000000000000000000000815260040161242d906133ed565b60405180910390fd5b805181602001fd5b63150b7a0260e01b7bffffffffffffffffffffffffffffffffffffffffffffffffffffffff1916817bffffffffffffffffffffffffffffffffffffffffffffffffffffffff191614915050612493565b600190505b949350505050565b6008805490506009600083815260200190815260200160002081905550600881908060018154018082558091505060019003906000526020600020016000909190919091505550565b600060016124f184610e1a565b6124fb919061388c565b90506000600760008481526020019081526020016000205490508181146125e0576000600660008673ffffffffffffffffffffffffffffffffffffffff1673ffffffffffffffffffffffffffffffffffffffff168152602001908152602001600020600084815260200190815260200160002054905080600660008773ffffffffffffffffffffffffffffffffffffffff1673ffffffffffffffffffffffffffffffffffffffff168152602001908152602001600020600084815260200190815260200160002081905550816007600083815260200190815260200160002081905550505b6007600084815260200190815260200160002060009055600660008573ffffffffffffffffffffffffffffffffffffffff1673ffffffffffffffffffffffffffffffffffffffff16815260200190815260200160002060008381526020019081526020016000206000905550505050565b60006001600880549050612665919061388c565b90506000600960008481526020019081526020016000205490506000600883815481106126bb577f4e487b7100000000000000000000000000000000000000000000000000000000600052603260045260246000fd5b906000526020600020015490508060088381548110612703577f4e487b7100000000000000000000000000000000000000000000000000000000600052603260045260246000fd5b906000526020600020018190555081600960008381526020019081526020016000208190555060096000858152602001908152602001600020600090556008805480612778577f4e487b7100000000000000000000000000000000000000000000000000000000600052603160045260246000fd5b6001900381819060005260206000200160009055905550505050565b600061279f83610e1a565b905081600660008573ffffffffffffffffffffffffffffffffffffffff1673ffffffffffffffffffffffffffffffffffffffff168152602001908152602001600020600083815260200190815260200160002081905550806007600084815260200190815260200160002081905550505050565b600073ffffffffffffffffffffffffffffffffffffffff168273ffffffffffffffffffffffffffffffffffffffff161415612883576040517f08c379a000000000000000000000000000000000000000000000000000000000815260040161287a9061354d565b60405180910390fd5b61288c8161194d565b156128cc576040517f08c379a00000000000000000000000000000000000000000000000000000000081526004016128c39061342d565b60405180910390fd5b6128d860008383612195565b6001600360008473ffffffffffffffffffffffffffffffffffffffff1673ffffffffffffffffffffffffffffffffffffffff168152602001908152602001600020600082825461292891906137ab565b92505081905550816002600083815260200190815260200160002060006101000a81548173ffffffffffffffffffffffffffffffffffffffff021916908373ffffffffffffffffffffffffffffffffffffffff160217905550808273ffffffffffffffffffffffffffffffffffffffff16600073ffffffffffffffffffffffffffffffffffffffff167fddf252ad1be2c89b69c2b068fc378daa952ba7f163c4a11628f55a4df523b3ef60405160405180910390a45050565b8280546129ed90613976565b90600052602060002090601f016020900481019282612a0f5760008555612a56565b82601f10612a2857805160ff1916838001178555612a56565b82800160010185558215612a56579182015b82811115612a55578251825591602001919060010190612a3a565b5b509050612a639190612a67565b5090565b5b80821115612a80576000816000905550600101612a68565b5090565b6000612a97612a92846136cd565b6136a8565b905082815260208101848484011115612aaf57600080fd5b612aba848285613934565b509392505050565b6000612ad5612ad0846136fe565b6136a8565b905082815260208101848484011115612aed57600080fd5b612af8848285613934565b509392505050565b600081359050612b0f8161412f565b92915050565b600081359050612b2481614146565b92915050565b600081359050612b398161415d565b92915050565b600081519050612b4e8161415d565b92915050565b600082601f830112612b6557600080fd5b8135612b75848260208601612a84565b91505092915050565b600082601f830112612b8f57600080fd5b8135612b9f848260208601612ac2565b91505092915050565b600081359050612bb781614174565b92915050565b600060208284031215612bcf57600080fd5b6000612bdd84828501612b00565b91505092915050565b60008060408385031215612bf957600080fd5b6000612c0785828601612b00565b9250506020612c1885828601612b00565b9150509250929050565b600080600060608486031215612c3757600080fd5b6000612c4586828701612b00565b9350506020612c5686828701612b00565b9250506040612c6786828701612ba8565b9150509250925092565b60008060008060808587031215612c8757600080fd5b6000612c9587828801612b00565b9450506020612ca687828801612b00565b9350506040612cb787828801612ba8565b925050606085013567ffffffffffffffff811115612cd457600080fd5b612ce087828801612b54565b91505092959194509250565b60008060408385031215612cff57600080fd5b6000612d0d85828601612b00565b9250506020612d1e85828601612b15565b9150509250929050565b60008060408385031215612d3b57600080fd5b6000612d4985828601612b00565b9250506020612d5a85828601612ba8565b9150509250929050565b600060208284031215612d7657600080fd5b6000612d8484828501612b15565b91505092915050565b600060208284031215612d9f57600080fd5b6000612dad84828501612b2a565b91505092915050565b600060208284031215612dc857600080fd5b6000612dd684828501612b3f565b91505092915050565b600060208284031215612df157600080fd5b600082013567ffffffffffffffff811115612e0b57600080fd5b612e1784828501612b7e565b91505092915050565b600060208284031215612e3257600080fd5b6000612e4084828501612ba8565b91505092915050565b6000612e5583836132a5565b60208301905092915050565b612e6a816138c0565b82525050565b6000612e7b8261373f565b612e85818561376d565b9350612e908361372f565b8060005b83811015612ec1578151612ea88882612e49565b9750612eb383613760565b925050600181019050612e94565b5085935050505092915050565b612ed7816138d2565b82525050565b6000612ee88261374a565b612ef2818561377e565b9350612f02818560208601613943565b612f0b81613b0f565b840191505092915050565b6000612f2182613755565b612f2b818561378f565b9350612f3b818560208601613943565b612f4481613b0f565b840191505092915050565b6000612f5a82613755565b612f6481856137a0565b9350612f74818560208601613943565b80840191505092915050565b6000612f8d600b8361378f565b9150612f9882613b20565b602082019050919050565b6000612fb0602b8361378f565b9150612fbb82613b49565b604082019050919050565b6000612fd360328361378f565b9150612fde82613b98565b604082019050919050565b6000612ff660268361378f565b915061300182613be7565b604082019050919050565b6000613019601c8361378f565b915061302482613c36565b602082019050919050565b600061303c60248361378f565b915061304782613c5f565b604082019050919050565b600061305f60198361378f565b915061306a82613cae565b602082019050919050565b6000613082602c8361378f565b915061308d82613cd7565b604082019050919050565b60006130a560208361378f565b91506130b082613d26565b602082019050919050565b60006130c860388361378f565b91506130d382613d4f565b604082019050919050565b60006130eb602a8361378f565b91506130f682613d9e565b604082019050919050565b600061310e60298361378f565b915061311982613ded565b604082019050919050565b600061313160218361378f565b915061313c82613e3c565b604082019050919050565b600061315460208361378f565b915061315f82613e8b565b602082019050919050565b6000613177602c8361378f565b915061318282613eb4565b604082019050919050565b600061319a60208361378f565b91506131a582613f03565b602082019050919050565b60006131bd60298361378f565b91506131c882613f2c565b604082019050919050565b60006131e0602f8361378f565b91506131eb82613f7b565b604082019050919050565b600061320360278361378f565b915061320e82613fca565b604082019050919050565b600061322660218361378f565b915061323182614019565b604082019050919050565b600061324960198361378f565b915061325482614068565b602082019050919050565b600061326c60318361378f565b915061327782614091565b604082019050919050565b600061328f602c8361378f565b915061329a826140e0565b604082019050919050565b6132ae8161392a565b82525050565b6132bd8161392a565b82525050565b60006132cf8285612f4f565b91506132db8284612f4f565b91508190509392505050565b60006020820190506132fc6000830184612e61565b92915050565b60006080820190506133176000830187612e61565b6133246020830186612e61565b61333160408301856132b4565b81810360608301526133438184612edd565b905095945050505050565b600060208201905081810360008301526133688184612e70565b905092915050565b60006020820190506133856000830184612ece565b92915050565b600060208201905081810360008301526133a58184612f16565b905092915050565b600060208201905081810360008301526133c681612f80565b9050919050565b600060208201905081810360008301526133e681612fa3565b9050919050565b6000602082019050818103600083015261340681612fc6565b9050919050565b6000602082019050818103600083015261342681612fe9565b9050919050565b600060208201905081810360008301526134468161300c565b9050919050565b600060208201905081810360008301526134668161302f565b9050919050565b6000602082019050818103600083015261348681613052565b9050919050565b600060208201905081810360008301526134a681613075565b9050919050565b600060208201905081810360008301526134c681613098565b9050919050565b600060208201905081810360008301526134e6816130bb565b9050919050565b60006020820190508181036000830152613506816130de565b9050919050565b6000602082019050818103600083015261352681613101565b9050919050565b6000602082019050818103600083015261354681613124565b9050919050565b6000602082019050818103600083015261356681613147565b9050919050565b600060208201905081810360008301526135868161316a565b9050919050565b600060208201905081810360008301526135a68161318d565b9050919050565b600060208201905081810360008301526135c6816131b0565b9050919050565b600060208201905081810360008301526135e6816131d3565b9050919050565b60006020820190508181036000830152613606816131f6565b9050919050565b6000602082019050818103600083015261362681613219565b9050919050565b600060208201905081810360008301526136468161323c565b9050919050565b600060208201905081810360008301526136668161325f565b9050919050565b6000602082019050818103600083015261368681613282565b9050919050565b60006020820190506136a260008301846132b4565b92915050565b60006136b26136c3565b90506136be82826139a8565b919050565b6000604051905090565b600067ffffffffffffffff8211156136e8576136e7613ae0565b5b6136f182613b0f565b9050602081019050919050565b600067ffffffffffffffff82111561371957613718613ae0565b5b61372282613b0f565b9050602081019050919050565b6000819050602082019050919050565b600081519050919050565b600081519050919050565b600081519050919050565b6000602082019050919050565b600082825260208201905092915050565b600082825260208201905092915050565b600082825260208201905092915050565b600081905092915050565b60006137b68261392a565b91506137c18361392a565b9250827fffffffffffffffffffffffffffffffffffffffffffffffffffffffffffffffff038211156137f6576137f5613a53565b5b828201905092915050565b600061380c8261392a565b91506138178361392a565b92508261382757613826613a82565b5b828204905092915050565b600061383d8261392a565b91506138488361392a565b9250817fffffffffffffffffffffffffffffffffffffffffffffffffffffffffffffffff048311821515161561388157613880613a53565b5b828202905092915050565b60006138978261392a565b91506138a28361392a565b9250828210156138b5576138b4613a53565b5b828203905092915050565b60006138cb8261390a565b9050919050565b60008115159050919050565b60007fffffffff0000000000000000000000000000000000000000000000000000000082169050919050565b600073ffffffffffffffffffffffffffffffffffffffff82169050919050565b6000819050919050565b82818337600083830152505050565b60005b83811015613961578082015181840152602081019050613946565b83811115613970576000848401525b50505050565b6000600282049050600182168061398e57607f821691505b602082108114156139a2576139a1613ab1565b5b50919050565b6139b182613b0f565b810181811067ffffffffffffffff821117156139d0576139cf613ae0565b5b80604052505050565b60006139e48261392a565b91507fffffffffffffffffffffffffffffffffffffffffffffffffffffffffffffffff821415613a1757613a16613a53565b5b600182019050919050565b6000613a2d8261392a565b9150613a388361392a565b925082613a4857613a47613a82565b5b828206905092915050565b7f4e487b7100000000000000000000000000000000000000000000000000000000600052601160045260246000fd5b7f4e487b7100000000000000000000000000000000000000000000000000000000600052601260045260246000fd5b7f4e487b7100000000000000000000000000000000000000000000000000000000600052602260045260246000fd5b7f4e487b7100000000000000000000000000000000000000000000000000000000600052604160045260246000fd5b6000601f19601f8301169050919050565b7f53616c6520706175736564000000000000000000000000000000000000000000600082015250565b7f455243373231456e756d657261626c653a206f776e657220696e646578206f7560008201527f74206f6620626f756e6473000000000000000000000000000000000000000000602082015250565b7f4552433732313a207472616e7366657220746f206e6f6e20455243373231526560008201527f63656976657220696d706c656d656e7465720000000000000000000000000000602082015250565b7f4f776e61626c653a206e6577206f776e657220697320746865207a65726f206160008201527f6464726573730000000000000000000000000000000000000000000000000000602082015250565b7f4552433732313a20746f6b656e20616c7265616479206d696e74656400000000600082015250565b7f4552433732313a207472616e7366657220746f20746865207a65726f2061646460008201527f7265737300000000000000000000000000000000000000000000000000000000602082015250565b7f4552433732313a20617070726f766520746f2063616c6c657200000000000000600082015250565b7f4552433732313a206f70657261746f7220717565727920666f72206e6f6e657860008201527f697374656e7420746f6b656e0000000000000000000000000000000000000000602082015250565b7f45786365656473206d6178696d756d2043726162726164657320737570706c79600082015250565b7f4552433732313a20617070726f76652063616c6c6572206973206e6f74206f7760008201527f6e6572206e6f7220617070726f76656420666f7220616c6c0000000000000000602082015250565b7f4552433732313a2062616c616e636520717565727920666f7220746865207a6560008201527f726f206164647265737300000000000000000000000000000000000000000000602082015250565b7f4552433732313a206f776e657220717565727920666f72206e6f6e657869737460008201527f656e7420746f6b656e0000000000000000000000000000000000000000000000602082015250565b7f457863656564732072657365727665642043726162726164657320737570706c60008201527f7900000000000000000000000000000000000000000000000000000000000000602082015250565b7f4552433732313a206d696e7420746f20746865207a65726f2061646472657373600082015250565b7f4552433732313a20617070726f76656420717565727920666f72206e6f6e657860008201527f697374656e7420746f6b656e0000000000000000000000000000000000000000602082015250565b7f4f776e61626c653a2063616c6c6572206973206e6f7420746865206f776e6572600082015250565b7f4552433732313a207472616e73666572206f6620746f6b656e2074686174206960008201527f73206e6f74206f776e0000000000000000000000000000000000000000000000602082015250565b7f4552433732314d657461646174613a2055524920717565727920666f72206e6f60008201527f6e6578697374656e7420746f6b656e0000000000000000000000000000000000602082015250565b7f596f752063616e2061646f70742061206d6178696d756d206f6620333020437260008201527f6162726164657300000000000000000000000000000000000000000000000000602082015250565b7f4552433732313a20617070726f76616c20746f2063757272656e74206f776e6560008201527f7200000000000000000000000000000000000000000000000000000000000000602082015250565b7f45746865722073656e74206973206e6f7420636f727265637400000000000000600082015250565b7f4552433732313a207472616e736665722063616c6c6572206973206e6f74206f60008201527f776e6572206e6f7220617070726f766564000000000000000000000000000000602082015250565b7f455243373231456e756d657261626c653a20676c6f62616c20696e646578206f60008201527f7574206f6620626f756e64730000000000000000000000000000000000000000602082015250565b614138816138c0565b811461414357600080fd5b50565b61414f816138d2565b811461415a57600080fd5b50565b614166816138de565b811461417157600080fd5b50565b61417d8161392a565b811461418857600080fd5b5056fea2646970667358221220cbe9b57eac3a94309a0207fe90c49189eb0812293b737cea93b423b6fa2efa2964736f6c63430008040033",
  "linkReferences": {},
  "deployedLinkReferences": {}
}