{
  "_format": "hh-sol-artifact-1",
  "contractName": "CoolCats",
  "sourceName": "contracts/Coolcats.sol",
  "abi": [
    {
      "inputs": [
        {
          "internalType": "string",
          "name": "baseURI",
          "type": "string"
        }
      ],
      "stateMutability": "nonpayable",
      "type": "constructor"
    },
    {
      "anonymous": false,
      "inputs": [
        {
          "indexed": true,
          "internalType": "address",
          "name": "owner",
          "type": "address"
        },
        {
          "indexed": true,
          "internalType": "address",
          "name": "approved",
          "type": "address"
        },
        {
          "indexed": true,
          "internalType": "uint256",
          "name": "tokenId",
          "type": "uint256"
        }
      ],
      "name": "Approval",
      "type": "event"
    },
    {
      "anonymous": false,
      "inputs": [
        {
          "indexed": true,
          "internalType": "address",
          "name": "owner",
          "type": "address"
        },
        {
          "indexed": true,
          "internalType": "address",
          "name": "operator",
          "type": "address"
        },
        {
          "indexed": false,
          "internalType": "bool",
          "name": "approved",
          "type": "bool"
        }
      ],
      "name": "ApprovalForAll",
      "type": "event"
    },
    {
      "anonymous": false,
      "inputs": [
        {
          "indexed": true,
          "internalType": "address",
          "name": "previousOwner",
          "type": "address"
        },
        {
          "indexed": true,
          "internalType": "address",
          "name": "newOwner",
          "type": "address"
        }
      ],
      "name": "OwnershipTransferred",
      "type": "event"
    },
    {
      "anonymous": false,
      "inputs": [
        {
          "indexed": true,
          "internalType": "address",
          "name": "from",
          "type": "address"
        },
        {
          "indexed": true,
          "internalType": "address",
          "name": "to",
          "type": "address"
        },
        {
          "indexed": true,
          "internalType": "uint256",
          "name": "tokenId",
          "type": "uint256"
        }
      ],
      "name": "Transfer",
      "type": "event"
    },
    {
      "inputs": [],
      "name": "_paused",
      "outputs": [
        {
          "internalType": "bool",
          "name": "",
          "type": "bool"
        }
      ],
      "stateMutability": "view",
      "type": "function"
    },
    {
      "inputs": [
        {
          "internalType": "uint256",
          "name": "num",
          "type": "uint256"
        }
      ],
      "name": "adopt",
      "outputs": [],
      "stateMutability": "payable",
      "type": "function"
    },
    {
      "inputs": [
        {
          "internalType": "address",
          "name": "to",
          "type": "address"
        },
        {
          "internalType": "uint256",
          "name": "tokenId",
          "type": "uint256"
        }
      ],
      "name": "approve",
      "outputs": [],
      "stateMutability": "nonpayable",
      "type": "function"
    },
    {
      "inputs": [
        {
          "internalType": "address",
          "name": "owner",
          "type": "address"
        }
      ],
      "name": "balanceOf",
      "outputs": [
        {
          "internalType": "uint256",
          "name": "",
          "type": "uint256"
        }
      ],
      "stateMutability": "view",
      "type": "function"
    },
    {
      "inputs": [
        {
          "internalType": "uint256",
          "name": "tokenId",
          "type": "uint256"
        }
      ],
      "name": "getApproved",
      "outputs": [
        {
          "internalType": "address",
          "name": "",
          "type": "address"
        }
      ],
      "stateMutability": "view",
      "type": "function"
    },
    {
      "inputs": [],
      "name": "getPrice",
      "outputs": [
        {
          "internalType": "uint256",
          "name": "",
          "type": "uint256"
        }
      ],
      "stateMutability": "view",
      "type": "function"
    },
    {
      "inputs": [
        {
          "internalType": "address",
          "name": "_to",
          "type": "address"
        },
        {
          "internalType": "uint256",
          "name": "_amount",
          "type": "uint256"
        }
      ],
      "name": "giveAway",
      "outputs": [],
      "stateMutability": "nonpayable",
      "type": "function"
    },
    {
      "inputs": [
        {
          "internalType": "address",
          "name": "owner",
          "type": "address"
        },
        {
          "internalType": "address",
          "name": "operator",
          "type": "address"
        }
      ],
      "name": "isApprovedForAll",
      "outputs": [
        {
          "internalType": "bool",
          "name": "",
          "type": "bool"
        }
      ],
      "stateMutability": "view",
      "type": "function"
    },
    {
      "inputs": [],
      "name": "name",
      "outputs": [
        {
          "internalType": "string",
          "name": "",
          "type": "string"
        }
      ],
      "stateMutability": "view",
      "type": "function"
    },
    {
      "inputs": [],
      "name": "owner",
      "outputs": [
        {
          "internalType": "address",
          "name": "",
          "type": "address"
        }
      ],
      "stateMutability": "view",
      "type": "function"
    },
    {
      "inputs": [
        {
          "internalType": "uint256",
          "name": "tokenId",
          "type": "uint256"
        }
      ],
      "name": "ownerOf",
      "outputs": [
        {
          "internalType": "address",
          "name": "",
          "type": "address"
        }
      ],
      "stateMutability": "view",
      "type": "function"
    },
    {
      "inputs": [
        {
          "internalType": "bool",
          "name": "val",
          "type": "bool"
        }
      ],
      "name": "pause",
      "outputs": [],
      "stateMutability": "nonpayable",
      "type": "function"
    },
    {
      "inputs": [],
      "name": "renounceOwnership",
      "outputs": [],
      "stateMutability": "nonpayable",
      "type": "function"
    },
    {
      "inputs": [
        {
          "internalType": "address",
          "name": "from",
          "type": "address"
        },
        {
          "internalType": "address",
          "name": "to",
          "type": "address"
        },
        {
          "internalType": "uint256",
          "name": "tokenId",
          "type": "uint256"
        }
      ],
      "name": "safeTransferFrom",
      "outputs": [],
      "stateMutability": "nonpayable",
      "type": "function"
    },
    {
      "inputs": [
        {
          "internalType": "address",
          "name": "from",
          "type": "address"
        },
        {
          "internalType": "address",
          "name": "to",
          "type": "address"
        },
        {
          "internalType": "uint256",
          "name": "tokenId",
          "type": "uint256"
        },
        {
          "internalType": "bytes",
          "name": "_data",
          "type": "bytes"
        }
      ],
      "name": "safeTransferFrom",
      "outputs": [],
      "stateMutability": "nonpayable",
      "type": "function"
    },
    {
      "inputs": [
        {
          "internalType": "address",
          "name": "operator",
          "type": "address"
        },
        {
          "internalType": "bool",
          "name": "approved",
          "type": "bool"
        }
      ],
      "name": "setApprovalForAll",
      "outputs": [],
      "stateMutability": "nonpayable",
      "type": "function"
    },
    {
      "inputs": [
        {
          "internalType": "string",
          "name": "baseURI",
          "type": "string"
        }
      ],
      "name": "setBaseURI",
      "outputs": [],
      "stateMutability": "nonpayable",
      "type": "function"
    },
    {
      "inputs": [
        {
          "internalType": "uint256",
          "name": "_newPrice",
          "type": "uint256"
        }
      ],
      "name": "setPrice",
      "outputs": [],
      "stateMutability": "nonpayable",
      "type": "function"
    },
    {
      "inputs": [
        {
          "internalType": "bytes4",
          "name": "interfaceId",
          "type": "bytes4"
        }
      ],
      "name": "supportsInterface",
      "outputs": [
        {
          "internalType": "bool",
          "name": "",
          "type": "bool"
        }
      ],
      "stateMutability": "view",
      "type": "function"
    },
    {
      "inputs": [],
      "name": "symbol",
      "outputs": [
        {
          "internalType": "string",
          "name": "",
          "type": "string"
        }
      ],
      "stateMutability": "view",
      "type": "function"
    },
    {
      "inputs": [
        {
          "internalType": "uint256",
          "name": "index",
          "type": "uint256"
        }
      ],
      "name": "tokenByIndex",
      "outputs": [
        {
          "internalType": "uint256",
          "name": "",
          "type": "uint256"
        }
      ],
      "stateMutability": "view",
      "type": "function"
    },
    {
      "inputs": [
        {
          "internalType": "address",
          "name": "owner",
          "type": "address"
        },
        {
          "internalType": "uint256",
          "name": "index",
          "type": "uint256"
        }
      ],
      "name": "tokenOfOwnerByIndex",
      "outputs": [
        {
          "internalType": "uint256",
          "name": "",
          "type": "uint256"
        }
      ],
      "stateMutability": "view",
      "type": "function"
    },
    {
      "inputs": [
        {
          "internalType": "uint256",
          "name": "tokenId",
          "type": "uint256"
        }
      ],
      "name": "tokenURI",
      "outputs": [
        {
          "internalType": "string",
          "name": "",
          "type": "string"
        }
      ],
      "stateMutability": "view",
      "type": "function"
    },
    {
      "inputs": [],
      "name": "totalSupply",
      "outputs": [
        {
          "internalType": "uint256",
          "name": "",
          "type": "uint256"
        }
      ],
      "stateMutability": "view",
      "type": "function"
    },
    {
      "inputs": [
        {
          "internalType": "address",
          "name": "from",
          "type": "address"
        },
        {
          "internalType": "address",
          "name": "to",
          "type": "address"
        },
        {
          "internalType": "uint256",
          "name": "tokenId",
          "type": "uint256"
        }
      ],
      "name": "transferFrom",
      "outputs": [],
      "stateMutability": "nonpayable",
      "type": "function"
    },
    {
      "inputs": [
        {
          "internalType": "address",
          "name": "newOwner",
          "type": "address"
        }
      ],
      "name": "transferOwnership",
      "outputs": [],
      "stateMutability": "nonpayable",
      "type": "function"
    },
    {
      "inputs": [
        {
          "internalType": "address",
          "name": "_owner",
          "type": "address"
        }
      ],
      "name": "walletOfOwner",
      "outputs": [
        {
          "internalType": "uint256[]",
          "name": "",
          "type": "uint256[]"
        }
      ],
      "stateMutability": "view",
      "type": "function"
    },
    {
      "inputs": [],
      "name": "withdrawAll",
      "outputs": [],
      "stateMutability": "payable",
      "type": "function"
    }
  ],
  "bytecode": "0x60806040526023600c5566470de4df820000600d556001600e60006101000a81548160ff02191690831515021790555073dc4bee14df2a04d9c52df2103adf39e524788ceb600e60016101000a81548173ffffffffffffffffffffffffffffffffffffffff021916908373ffffffffffffffffffffffffffffffffffffffff1602179055503480156200009157600080fd5b50604051620057c5380380620057c58339818101604052810190620000b7919062000fbf565b6040518060400160405280600981526020017f436f6f6c204361747300000000000000000000000000000000000000000000008152506040518060400160405280600481526020017f434f4f4c0000000000000000000000000000000000000000000000000000000081525081600090805190602001906200013b92919062000e5a565b5080600190805190602001906200015492919062000e5a565b505050620001776200016b6200026360201b60201c565b6200026b60201b60201c565b62000188816200033160201b60201c565b620001bd600e60019054906101000a900473ffffffffffffffffffffffffffffffffffffffff166000620003dc60201b60201c565b620001f2600e60019054906101000a900473ffffffffffffffffffffffffffffffffffffffff166001620003dc60201b60201c565b62000227600e60019054906101000a900473ffffffffffffffffffffffffffffffffffffffff166002620003dc60201b60201c565b6200025c600e60019054906101000a900473ffffffffffffffffffffffffffffffffffffffff166003620003dc60201b60201c565b5062001629565b600033905090565b6000600a60009054906101000a900473ffffffffffffffffffffffffffffffffffffffff16905081600a60006101000a81548173ffffffffffffffffffffffffffffffffffffffff021916908373ffffffffffffffffffffffffffffffffffffffff1602179055508173ffffffffffffffffffffffffffffffffffffffff168173ffffffffffffffffffffffffffffffffffffffff167f8be0079c531659141344cd1fd0a4f28419497f9722a3daafe3b4186f6b6457e060405160405180910390a35050565b620003416200026360201b60201c565b73ffffffffffffffffffffffffffffffffffffffff16620003676200040260201b60201c565b73ffffffffffffffffffffffffffffffffffffffff1614620003c0576040517f08c379a0000000000000000000000000000000000000000000000000000000008152600401620003b79062001206565b60405180910390fd5b80600b9080519060200190620003d892919062000e5a565b5050565b620003fe8282604051806020016040528060008152506200042c60201b60201c565b5050565b6000600a60009054906101000a900473ffffffffffffffffffffffffffffffffffffffff16905090565b6200043e83836200049a60201b60201c565b6200045360008484846200068060201b60201c565b62000495576040517f08c379a00000000000000000000000000000000000000000000000000000000081526004016200048c906200117e565b60405180910390fd5b505050565b600073ffffffffffffffffffffffffffffffffffffffff168273ffffffffffffffffffffffffffffffffffffffff1614156200050d576040517f08c379a00000000000000000000000000000000000000000000000000000000081526004016200050490620011e4565b60405180910390fd5b6200051e816200083a60201b60201c565b1562000561576040517f08c379a00000000000000000000000000000000000000000000000000000000081526004016200055890620011a0565b60405180910390fd5b6200057560008383620008a660201b60201c565b6001600360008473ffffffffffffffffffffffffffffffffffffffff1673ffffffffffffffffffffffffffffffffffffffff1681526020019081526020016000206000828254620005c79190620012b4565b92505081905550816002600083815260200190815260200160002060006101000a81548173ffffffffffffffffffffffffffffffffffffffff021916908373ffffffffffffffffffffffffffffffffffffffff160217905550808273ffffffffffffffffffffffffffffffffffffffff16600073ffffffffffffffffffffffffffffffffffffffff167fddf252ad1be2c89b69c2b068fc378daa952ba7f163c4a11628f55a4df523b3ef60405160405180910390a45050565b6000620006ae8473ffffffffffffffffffffffffffffffffffffffff16620009ed60201b6200183c1760201c565b156200082d578373ffffffffffffffffffffffffffffffffffffffff1663150b7a02620006e06200026360201b60201c565b8786866040518563ffffffff1660e01b81526004016200070494939291906200112a565b602060405180830381600087803b1580156200071f57600080fd5b505af19250505080156200075357506040513d601f19601f8201168201806040525081019062000750919062000f93565b60015b620007dc573d806000811462000786576040519150601f19603f3d011682016040523d82523d6000602084013e6200078b565b606091505b50600081511415620007d4576040517f08c379a0000000000000000000000000000000000000000000000000000000008152600401620007cb906200117e565b60405180910390fd5b805181602001fd5b63150b7a0260e01b7bffffffffffffffffffffffffffffffffffffffffffffffffffffffff1916817bffffffffffffffffffffffffffffffffffffffffffffffffffffffff19161491505062000832565b600190505b949350505050565b60008073ffffffffffffffffffffffffffffffffffffffff166002600084815260200190815260200160002060009054906101000a900473ffffffffffffffffffffffffffffffffffffffff1673ffffffffffffffffffffffffffffffffffffffff1614159050919050565b620008be83838362000a0060201b6200184f1760201c565b600073ffffffffffffffffffffffffffffffffffffffff168373ffffffffffffffffffffffffffffffffffffffff1614156200090b57620009058162000a0560201b60201c565b62000953565b8173ffffffffffffffffffffffffffffffffffffffff168373ffffffffffffffffffffffffffffffffffffffff1614620009525762000951838262000a4e60201b60201c565b5b5b600073ffffffffffffffffffffffffffffffffffffffff168273ffffffffffffffffffffffffffffffffffffffff161415620009a0576200099a8162000bcb60201b60201c565b620009e8565b8273ffffffffffffffffffffffffffffffffffffffff168273ffffffffffffffffffffffffffffffffffffffff1614620009e757620009e6828262000d1360201b60201c565b5b5b505050565b600080823b905060008111915050919050565b505050565b6008805490506009600083815260200190815260200160002081905550600881908060018154018082558091505060019003906000526020600020016000909190919091505550565b6000600162000a688462000d9f60201b62000e1a1760201c565b62000a74919062001311565b905060006007600084815260200190815260200160002054905081811462000b5a576000600660008673ffffffffffffffffffffffffffffffffffffffff1673ffffffffffffffffffffffffffffffffffffffff168152602001908152602001600020600084815260200190815260200160002054905080600660008773ffffffffffffffffffffffffffffffffffffffff1673ffffffffffffffffffffffffffffffffffffffff168152602001908152602001600020600084815260200190815260200160002081905550816007600083815260200190815260200160002081905550505b6007600084815260200190815260200160002060009055600660008573ffffffffffffffffffffffffffffffffffffffff1673ffffffffffffffffffffffffffffffffffffffff16815260200190815260200160002060008381526020019081526020016000206000905550505050565b6000600160088054905062000be1919062001311565b905060006009600084815260200190815260200160002054905060006008838154811062000c38577f4e487b7100000000000000000000000000000000000000000000000000000000600052603260045260246000fd5b90600052602060002001549050806008838154811062000c81577f4e487b7100000000000000000000000000000000000000000000000000000000600052603260045260246000fd5b90600052602060002001819055508160096000838152602001908152602001600020819055506009600085815260200190815260200160002060009055600880548062000cf7577f4e487b7100000000000000000000000000000000000000000000000000000000600052603160045260246000fd5b6001900381819060005260206000200160009055905550505050565b600062000d2b8362000d9f60201b62000e1a1760201c565b905081600660008573ffffffffffffffffffffffffffffffffffffffff1673ffffffffffffffffffffffffffffffffffffffff168152602001908152602001600020600083815260200190815260200160002081905550806007600084815260200190815260200160002081905550505050565b60008073ffffffffffffffffffffffffffffffffffffffff168273ffffffffffffffffffffffffffffffffffffffff16141562000e13576040517f08c379a000000000000000000000000000000000000000000000000000000000815260040162000e0a90620011c2565b60405180910390fd5b600360008373ffffffffffffffffffffffffffffffffffffffff1673ffffffffffffffffffffffffffffffffffffffff168152602001908152602001600020549050919050565b82805462000e6890620013ec565b90600052602060002090601f01602090048101928262000e8c576000855562000ed8565b82601f1062000ea757805160ff191683800117855562000ed8565b8280016001018555821562000ed8579182015b8281111562000ed757825182559160200191906001019062000eba565b5b50905062000ee7919062000eeb565b5090565b5b8082111562000f0657600081600090555060010162000eec565b5090565b600062000f2162000f1b8462001251565b62001228565b90508281526020810184848401111562000f3a57600080fd5b62000f47848285620013b6565b509392505050565b60008151905062000f60816200160f565b92915050565b600082601f83011262000f7857600080fd5b815162000f8a84826020860162000f0a565b91505092915050565b60006020828403121562000fa657600080fd5b600062000fb68482850162000f4f565b91505092915050565b60006020828403121562000fd257600080fd5b600082015167ffffffffffffffff81111562000fed57600080fd5b62000ffb8482850162000f66565b91505092915050565b6200100f816200134c565b82525050565b6000620010228262001287565b6200102e818562001292565b935062001040818560208601620013b6565b6200104b81620014e5565b840191505092915050565b600062001065603283620012a3565b91506200107282620014f6565b604082019050919050565b60006200108c601c83620012a3565b9150620010998262001545565b602082019050919050565b6000620010b3602a83620012a3565b9150620010c0826200156e565b604082019050919050565b6000620010da602083620012a3565b9150620010e782620015bd565b602082019050919050565b600062001101602083620012a3565b91506200110e82620015e6565b602082019050919050565b6200112481620013ac565b82525050565b600060808201905062001141600083018762001004565b62001150602083018662001004565b6200115f604083018562001119565b818103606083015262001173818462001015565b905095945050505050565b60006020820190508181036000830152620011998162001056565b9050919050565b60006020820190508181036000830152620011bb816200107d565b9050919050565b60006020820190508181036000830152620011dd81620010a4565b9050919050565b60006020820190508181036000830152620011ff81620010cb565b9050919050565b600060208201905081810360008301526200122181620010f2565b9050919050565b60006200123462001247565b905062001242828262001422565b919050565b6000604051905090565b600067ffffffffffffffff8211156200126f576200126e620014b6565b5b6200127a82620014e5565b9050602081019050919050565b600081519050919050565b600082825260208201905092915050565b600082825260208201905092915050565b6000620012c182620013ac565b9150620012ce83620013ac565b9250827fffffffffffffffffffffffffffffffffffffffffffffffffffffffffffffffff0382111562001306576200130562001458565b5b828201905092915050565b60006200131e82620013ac565b91506200132b83620013ac565b92508282101562001341576200134062001458565b5b828203905092915050565b600062001359826200138c565b9050919050565b60007fffffffff0000000000000000000000000000000000000000000000000000000082169050919050565b600073ffffffffffffffffffffffffffffffffffffffff82169050919050565b6000819050919050565b60005b83811015620013d6578082015181840152602081019050620013b9565b83811115620013e6576000848401525b50505050565b600060028204905060018216806200140557607f821691505b602082108114156200141c576200141b62001487565b5b50919050565b6200142d82620014e5565b810181811067ffffffffffffffff821117156200144f576200144e620014b6565b5b80604052505050565b7f4e487b7100000000000000000000000000000000000000000000000000000000600052601160045260246000fd5b7f4e487b7100000000000000000000000000000000000000000000000000000000600052602260045260246000fd5b7f4e487b7100000000000000000000000000000000000000000000000000000000600052604160045260246000fd5b6000601f19601f8301169050919050565b7f4552433732313a207472616e7366657220746f206e6f6e20455243373231526560008201527f63656976657220696d706c656d656e7465720000000000000000000000000000602082015250565b7f4552433732313a20746f6b656e20616c7265616479206d696e74656400000000600082015250565b7f4552433732313a2062616c616e636520717565727920666f7220746865207a6560008201527f726f206164647265737300000000000000000000000000000000000000000000602082015250565b7f4552433732313a206d696e7420746f20746865207a65726f2061646472657373600082015250565b7f4f776e61626c653a2063616c6c6572206973206e6f7420746865206f776e6572600082015250565b6200161a8162001360565b81146200162657600080fd5b50565b61418c80620016396000396000f3fe6080604052600436106101b75760003560e01c806370a08231116100ec57806398d5fdca1161008a578063c87b56dd11610064578063c87b56dd146105ee578063ca8001441461062b578063e985e9c514610654578063f2fde38b14610691576101b7565b806398d5fdca14610571578063a22cb4651461059c578063b88d4fde146105c5576101b7565b80638588b2c5116100c65780638588b2c5146104d65780638da5cb5b146104f257806391b7f5ed1461051d57806395d89b4114610546576101b7565b806370a0823114610478578063715018a6146104b5578063853828b6146104cc576101b7565b806323b872dd11610159578063438b630011610133578063438b6300146103985780634f6ccce7146103d557806355f804b3146104125780636352211e1461043b576101b7565b806323b872dd146103095780632f745c591461033257806342842e0e1461036f576101b7565b8063081812fc11610195578063081812fc1461024d578063095ea7b31461028a57806316c61ccc146102b357806318160ddd146102de576101b7565b806301ffc9a7146101bc57806302329a29146101f957806306fdde0314610222575b600080fd5b3480156101c857600080fd5b506101e360048036038101906101de9190612d7e565b6106ba565b6040516101f09190613361565b60405180910390f35b34801561020557600080fd5b50610220600480360381019061021b9190612d55565b610734565b005b34801561022e57600080fd5b506102376107cd565b604051610244919061337c565b60405180910390f35b34801561025957600080fd5b50610274600480360381019061026f9190612e11565b61085f565b60405161028191906132d8565b60405180910390f35b34801561029657600080fd5b506102b160048036038101906102ac9190612d19565b6108e4565b005b3480156102bf57600080fd5b506102c86109fc565b6040516102d59190613361565b60405180910390f35b3480156102ea57600080fd5b506102f3610a0f565b604051610300919061367e565b60405180910390f35b34801561031557600080fd5b50610330600480360381019061032b9190612c13565b610a1c565b005b34801561033e57600080fd5b5061035960048036038101906103549190612d19565b610a7c565b604051610366919061367e565b60405180910390f35b34801561037b57600080fd5b5061039660048036038101906103919190612c13565b610b21565b005b3480156103a457600080fd5b506103bf60048036038101906103ba9190612bae565b610b41565b6040516103cc919061333f565b60405180910390f35b3480156103e157600080fd5b506103fc60048036038101906103f79190612e11565b610c3b565b604051610409919061367e565b60405180910390f35b34801561041e57600080fd5b5061043960048036038101906104349190612dd0565b610cd2565b005b34801561044757600080fd5b50610462600480360381019061045d9190612e11565b610d68565b60405161046f91906132d8565b60405180910390f35b34801561048457600080fd5b5061049f600480360381019061049a9190612bae565b610e1a565b6040516104ac919061367e565b60405180910390f35b3480156104c157600080fd5b506104ca610ed2565b005b6104d4610f5a565b005b6104f060048036038101906104eb9190612e11565b611038565b005b3480156104fe57600080fd5b506105076111bb565b60405161051491906132d8565b60405180910390f35b34801561052957600080fd5b50610544600480360381019061053f9190612e11565b6111e5565b005b34801561055257600080fd5b5061055b61126b565b604051610568919061337c565b60405180910390f35b34801561057d57600080fd5b506105866112fd565b604051610593919061367e565b60405180910390f35b3480156105a857600080fd5b506105c360048036038101906105be9190612cdd565b611307565b005b3480156105d157600080fd5b506105ec60048036038101906105e79190612c62565b611488565b005b3480156105fa57600080fd5b5061061560048036038101906106109190612e11565b6114ea565b604051610622919061337c565b60405180910390f35b34801561063757600080fd5b50610652600480360381019061064d9190612d19565b611591565b005b34801561066057600080fd5b5061067b60048036038101906106769190612bd7565b6116b0565b6040516106889190613361565b60405180910390f35b34801561069d57600080fd5b506106b860048036038101906106b39190612bae565b611744565b005b60007f780e9d63000000000000000000000000000000000000000000000000000000007bffffffffffffffffffffffffffffffffffffffffffffffffffffffff1916827bffffffffffffffffffffffffffffffffffffffffffffffffffffffff1916148061072d575061072c82611854565b5b9050919050565b61073c611936565b73ffffffffffffffffffffffffffffffffffffffff1661075a6111bb565b73ffffffffffffffffffffffffffffffffffffffff16146107b0576040517f08c379a00000000000000000000000000000000000000000000000000000000081526004016107a79061359e565b60405180910390fd5b80600e60006101000a81548160ff02191690831515021790555050565b6060600080546107dc90613967565b80601f016020809104026020016040519081016040528092919081815260200182805461080890613967565b80156108555780601f1061082a57610100808354040283529160200191610855565b820191906000526020600020905b81548152906001019060200180831161083857829003601f168201915b5050505050905090565b600061086a8261193e565b6108a9576040517f08c379a00000000000000000000000000000000000000000000000000000000081526004016108a09061357e565b60405180910390fd5b6004600083815260200190815260200160002060009054906101000a900473ffffffffffffffffffffffffffffffffffffffff169050919050565b60006108ef82610d68565b90508073ffffffffffffffffffffffffffffffffffffffff168373ffffffffffffffffffffffffffffffffffffffff161415610960576040517f08c379a0000000000000000000000000000000000000000000000000000000008152600401610957906135fe565b60405180910390fd5b8073ffffffffffffffffffffffffffffffffffffffff1661097f611936565b73ffffffffffffffffffffffffffffffffffffffff1614806109ae57506109ad816109a8611936565b6116b0565b5b6109ed576040517f08c379a00000000000000000000000000000000000000000000000000000000081526004016109e4906134fe565b60405180910390fd5b6109f783836119aa565b505050565b600e60009054906101000a900460ff1681565b6000600880549050905090565b610a2d610a27611936565b82611a63565b610a6c576040517f08c379a0000000000000000000000000000000000000000000000000000000008152600401610a639061363e565b60405180910390fd5b610a77838383611b41565b505050565b6000610a8783610e1a565b8210610ac8576040517f08c379a0000000000000000000000000000000000000000000000000000000008152600401610abf906133be565b60405180910390fd5b600660008473ffffffffffffffffffffffffffffffffffffffff1673ffffffffffffffffffffffffffffffffffffffff168152602001908152602001600020600083815260200190815260200160002054905092915050565b610b3c83838360405180602001604052806000815250611488565b505050565b60606000610b4e83610e1a565b905060008167ffffffffffffffff811115610b92577f4e487b7100000000000000000000000000000000000000000000000000000000600052604160045260246000fd5b604051908082528060200260200182016040528015610bc05781602001602082028036833780820191505090505b50905060005b82811015610c3057610bd88582610a7c565b828281518110610c11577f4e487b7100000000000000000000000000000000000000000000000000000000600052603260045260246000fd5b6020026020010181815250508080610c28906139ca565b915050610bc6565b508092505050919050565b6000610c45610a0f565b8210610c86576040517f08c379a0000000000000000000000000000000000000000000000000000000008152600401610c7d9061365e565b60405180910390fd5b60088281548110610cc0577f4e487b7100000000000000000000000000000000000000000000000000000000600052603260045260246000fd5b90600052602060002001549050919050565b610cda611936565b73ffffffffffffffffffffffffffffffffffffffff16610cf86111bb565b73ffffffffffffffffffffffffffffffffffffffff1614610d4e576040517f08c379a0000000000000000000000000000000000000000000000000000000008152600401610d459061359e565b60405180910390fd5b80600b9080519060200190610d649291906129d2565b5050565b6000806002600084815260200190815260200160002060009054906101000a900473ffffffffffffffffffffffffffffffffffffffff169050600073ffffffffffffffffffffffffffffffffffffffff168173ffffffffffffffffffffffffffffffffffffffff161415610e11576040517f08c379a0000000000000000000000000000000000000000000000000000000008152600401610e089061353e565b60405180910390fd5b80915050919050565b60008073ffffffffffffffffffffffffffffffffffffffff168273ffffffffffffffffffffffffffffffffffffffff161415610e8b576040517f08c379a0000000000000000000000000000000000000000000000000000000008152600401610e829061351e565b60405180910390fd5b600360008373ffffffffffffffffffffffffffffffffffffffff1673ffffffffffffffffffffffffffffffffffffffff168152602001908152602001600020549050919050565b610eda611936565b73ffffffffffffffffffffffffffffffffffffffff16610ef86111bb565b73ffffffffffffffffffffffffffffffffffffffff1614610f4e576040517f08c379a0000000000000000000000000000000000000000000000000000000008152600401610f459061359e565b60405180910390fd5b610f586000611d9d565b565b610f62611936565b73ffffffffffffffffffffffffffffffffffffffff16610f806111bb565b73ffffffffffffffffffffffffffffffffffffffff1614610fd6576040517f08c379a0000000000000000000000000000000000000000000000000000000008152600401610fcd9061359e565b60405180910390fd5b600e60019054906101000a900473ffffffffffffffffffffffffffffffffffffffff1673ffffffffffffffffffffffffffffffffffffffff166108fc479081150290604051600060405180830381858888f1935050505061103657600080fd5b565b6000611042610a0f565b9050600e60009054906101000a900460ff1615611094576040517f08c379a000000000000000000000000000000000000000000000000000000000815260040161108b9061339e565b60405180910390fd5b601582106110d7576040517f08c379a00000000000000000000000000000000000000000000000000000000081526004016110ce9061347e565b60405180910390fd5b600c546127106110e7919061387d565b82826110f3919061379c565b10611133576040517f08c379a000000000000000000000000000000000000000000000000000000000815260040161112a906133fe565b60405180910390fd5b81600d546111419190613823565b341015611183576040517f08c379a000000000000000000000000000000000000000000000000000000000815260040161117a9061361e565b60405180910390fd5b60005b828110156111b6576111a333828461119e919061379c565b611e63565b80806111ae906139ca565b915050611186565b505050565b6000600a60009054906101000a900473ffffffffffffffffffffffffffffffffffffffff16905090565b6111ed611936565b73ffffffffffffffffffffffffffffffffffffffff1661120b6111bb565b73ffffffffffffffffffffffffffffffffffffffff1614611261576040517f08c379a00000000000000000000000000000000000000000000000000000000081526004016112589061359e565b60405180910390fd5b80600d8190555050565b60606001805461127a90613967565b80601f01602080910402602001604051908101604052809291908181526020018280546112a690613967565b80156112f35780601f106112c8576101008083540402835291602001916112f3565b820191906000526020600020905b8154815290600101906020018083116112d657829003601f168201915b5050505050905090565b6000600d54905090565b61130f611936565b73ffffffffffffffffffffffffffffffffffffffff168273ffffffffffffffffffffffffffffffffffffffff16141561137d576040517f08c379a0000000000000000000000000000000000000000000000000000000008152600401611374906134be565b60405180910390fd5b806005600061138a611936565b73ffffffffffffffffffffffffffffffffffffffff1673ffffffffffffffffffffffffffffffffffffffff16815260200190815260200160002060008473ffffffffffffffffffffffffffffffffffffffff1673ffffffffffffffffffffffffffffffffffffffff16815260200190815260200160002060006101000a81548160ff0219169083151502179055508173ffffffffffffffffffffffffffffffffffffffff16611437611936565b73ffffffffffffffffffffffffffffffffffffffff167f17307eab39ab6107e8899845ad3d59bd9653f200f220920489ca2b5937696c318360405161147c9190613361565b60405180910390a35050565b611499611493611936565b83611a63565b6114d8576040517f08c379a00000000000000000000000000000000000000000000000000000000081526004016114cf9061363e565b60405180910390fd5b6114e484848484611e81565b50505050565b60606114f58261193e565b611534576040517f08c379a000000000000000000000000000000000000000000000000000000000815260040161152b906135de565b60405180910390fd5b600061153e611edd565b9050600081511161155e5760405180602001604052806000815250611589565b8061156884611f6f565b6040516020016115799291906132b4565b6040516020818303038152906040525b915050919050565b611599611936565b73ffffffffffffffffffffffffffffffffffffffff166115b76111bb565b73ffffffffffffffffffffffffffffffffffffffff161461160d576040517f08c379a00000000000000000000000000000000000000000000000000000000081526004016116049061359e565b60405180910390fd5b600c54811115611652576040517f08c379a00000000000000000000000000000000000000000000000000000000081526004016116499061343e565b60405180910390fd5b600061165c610a0f565b905060005b828110156116915761167e848284611679919061379c565b611e63565b8080611689906139ca565b915050611661565b5081600c60008282546116a4919061387d565b92505081905550505050565b6000600560008473ffffffffffffffffffffffffffffffffffffffff1673ffffffffffffffffffffffffffffffffffffffff16815260200190815260200160002060008373ffffffffffffffffffffffffffffffffffffffff1673ffffffffffffffffffffffffffffffffffffffff16815260200190815260200160002060009054906101000a900460ff16905092915050565b61174c611936565b73ffffffffffffffffffffffffffffffffffffffff1661176a6111bb565b73ffffffffffffffffffffffffffffffffffffffff16146117c0576040517f08c379a00000000000000000000000000000000000000000000000000000000081526004016117b79061359e565b60405180910390fd5b600073ffffffffffffffffffffffffffffffffffffffff168173ffffffffffffffffffffffffffffffffffffffff161415611830576040517f08c379a00000000000000000000000000000000000000000000000000000000081526004016118279061341e565b60405180910390fd5b61183981611d9d565b50565b600080823b905060008111915050919050565b505050565b60007f80ac58cd000000000000000000000000000000000000000000000000000000007bffffffffffffffffffffffffffffffffffffffffffffffffffffffff1916827bffffffffffffffffffffffffffffffffffffffffffffffffffffffff1916148061191f57507f5b5e139f000000000000000000000000000000000000000000000000000000007bffffffffffffffffffffffffffffffffffffffffffffffffffffffff1916827bffffffffffffffffffffffffffffffffffffffffffffffffffffffff1916145b8061192f575061192e8261211c565b5b9050919050565b600033905090565b60008073ffffffffffffffffffffffffffffffffffffffff166002600084815260200190815260200160002060009054906101000a900473ffffffffffffffffffffffffffffffffffffffff1673ffffffffffffffffffffffffffffffffffffffff1614159050919050565b816004600083815260200190815260200160002060006101000a81548173ffffffffffffffffffffffffffffffffffffffff021916908373ffffffffffffffffffffffffffffffffffffffff160217905550808273ffffffffffffffffffffffffffffffffffffffff16611a1d83610d68565b73ffffffffffffffffffffffffffffffffffffffff167f8c5be1e5ebec7d5bd14f71427d1e84f3dd0314c0f7b2291e5b200ac8c7c3b92560405160405180910390a45050565b6000611a6e8261193e565b611aad576040517f08c379a0000000000000000000000000000000000000000000000000000000008152600401611aa4906134de565b60405180910390fd5b6000611ab883610d68565b90508073ffffffffffffffffffffffffffffffffffffffff168473ffffffffffffffffffffffffffffffffffffffff161480611b2757508373ffffffffffffffffffffffffffffffffffffffff16611b0f8461085f565b73ffffffffffffffffffffffffffffffffffffffff16145b80611b385750611b3781856116b0565b5b91505092915050565b8273ffffffffffffffffffffffffffffffffffffffff16611b6182610d68565b73ffffffffffffffffffffffffffffffffffffffff1614611bb7576040517f08c379a0000000000000000000000000000000000000000000000000000000008152600401611bae906135be565b60405180910390fd5b600073ffffffffffffffffffffffffffffffffffffffff168273ffffffffffffffffffffffffffffffffffffffff161415611c27576040517f08c379a0000000000000000000000000000000000000000000000000000000008152600401611c1e9061349e565b60405180910390fd5b611c32838383612186565b611c3d6000826119aa565b6001600360008573ffffffffffffffffffffffffffffffffffffffff1673ffffffffffffffffffffffffffffffffffffffff1681526020019081526020016000206000828254611c8d919061387d565b925050819055506001600360008473ffffffffffffffffffffffffffffffffffffffff1673ffffffffffffffffffffffffffffffffffffffff1681526020019081526020016000206000828254611ce4919061379c565b92505081905550816002600083815260200190815260200160002060006101000a81548173ffffffffffffffffffffffffffffffffffffffff021916908373ffffffffffffffffffffffffffffffffffffffff160217905550808273ffffffffffffffffffffffffffffffffffffffff168473ffffffffffffffffffffffffffffffffffffffff167fddf252ad1be2c89b69c2b068fc378daa952ba7f163c4a11628f55a4df523b3ef60405160405180910390a4505050565b6000600a60009054906101000a900473ffffffffffffffffffffffffffffffffffffffff16905081600a60006101000a81548173ffffffffffffffffffffffffffffffffffffffff021916908373ffffffffffffffffffffffffffffffffffffffff1602179055508173ffffffffffffffffffffffffffffffffffffffff168173ffffffffffffffffffffffffffffffffffffffff167f8be0079c531659141344cd1fd0a4f28419497f9722a3daafe3b4186f6b6457e060405160405180910390a35050565b611e7d82826040518060200160405280600081525061229a565b5050565b611e8c848484611b41565b611e98848484846122f5565b611ed7576040517f08c379a0000000000000000000000000000000000000000000000000000000008152600401611ece906133de565b60405180910390fd5b50505050565b6060600b8054611eec90613967565b80601f0160208091040260200160405190810160405280929190818152602001828054611f1890613967565b8015611f655780601f10611f3a57610100808354040283529160200191611f65565b820191906000526020600020905b815481529060010190602001808311611f4857829003601f168201915b5050505050905090565b60606000821415611fb7576040518060400160405280600181526020017f30000000000000000000000000000000000000000000000000000000000000008152509050612117565b600082905060005b60008214611fe9578080611fd2906139ca565b915050600a82611fe291906137f2565b9150611fbf565b60008167ffffffffffffffff81111561202b577f4e487b7100000000000000000000000000000000000000000000000000000000600052604160045260246000fd5b6040519080825280601f01601f19166020018201604052801561205d5781602001600182028036833780820191505090505b5090505b6000851461211057600182612076919061387d565b9150600a856120859190613a13565b6030612091919061379c565b60f81b8183815181106120cd577f4e487b7100000000000000000000000000000000000000000000000000000000600052603260045260246000fd5b60200101907effffffffffffffffffffffffffffffffffffffffffffffffffffffffffffff1916908160001a905350600a8561210991906137f2565b9450612061565b8093505050505b919050565b60007f01ffc9a7000000000000000000000000000000000000000000000000000000007bffffffffffffffffffffffffffffffffffffffffffffffffffffffff1916827bffffffffffffffffffffffffffffffffffffffffffffffffffffffff1916149050919050565b61219183838361184f565b600073ffffffffffffffffffffffffffffffffffffffff168373ffffffffffffffffffffffffffffffffffffffff1614156121d4576121cf8161248c565b612213565b8173ffffffffffffffffffffffffffffffffffffffff168373ffffffffffffffffffffffffffffffffffffffff16146122125761221183826124d5565b5b5b600073ffffffffffffffffffffffffffffffffffffffff168273ffffffffffffffffffffffffffffffffffffffff1614156122565761225181612642565b612295565b8273ffffffffffffffffffffffffffffffffffffffff168273ffffffffffffffffffffffffffffffffffffffff1614612294576122938282612785565b5b5b505050565b6122a48383612804565b6122b160008484846122f5565b6122f0576040517f08c379a00000000000000000000000000000000000000000000000000000000081526004016122e7906133de565b60405180910390fd5b505050565b60006123168473ffffffffffffffffffffffffffffffffffffffff1661183c565b1561247f578373ffffffffffffffffffffffffffffffffffffffff1663150b7a0261233f611936565b8786866040518563ffffffff1660e01b815260040161236194939291906132f3565b602060405180830381600087803b15801561237b57600080fd5b505af19250505080156123ac57506040513d601f19601f820116820180604052508101906123a99190612da7565b60015b61242f573d80600081146123dc576040519150601f19603f3d011682016040523d82523d6000602084013e6123e1565b606091505b50600081511415612427576040517f08c379a000000000000000000000000000000000000000000000000000000000815260040161241e906133de565b60405180910390fd5b805181602001fd5b63150b7a0260e01b7bffffffffffffffffffffffffffffffffffffffffffffffffffffffff1916817bffffffffffffffffffffffffffffffffffffffffffffffffffffffff191614915050612484565b600190505b949350505050565b6008805490506009600083815260200190815260200160002081905550600881908060018154018082558091505060019003906000526020600020016000909190919091505550565b600060016124e284610e1a565b6124ec919061387d565b90506000600760008481526020019081526020016000205490508181146125d1576000600660008673ffffffffffffffffffffffffffffffffffffffff1673ffffffffffffffffffffffffffffffffffffffff168152602001908152602001600020600084815260200190815260200160002054905080600660008773ffffffffffffffffffffffffffffffffffffffff1673ffffffffffffffffffffffffffffffffffffffff168152602001908152602001600020600084815260200190815260200160002081905550816007600083815260200190815260200160002081905550505b6007600084815260200190815260200160002060009055600660008573ffffffffffffffffffffffffffffffffffffffff1673ffffffffffffffffffffffffffffffffffffffff16815260200190815260200160002060008381526020019081526020016000206000905550505050565b60006001600880549050612656919061387d565b90506000600960008481526020019081526020016000205490506000600883815481106126ac577f4e487b7100000000000000000000000000000000000000000000000000000000600052603260045260246000fd5b9060005260206000200154905080600883815481106126f4577f4e487b7100000000000000000000000000000000000000000000000000000000600052603260045260246000fd5b906000526020600020018190555081600960008381526020019081526020016000208190555060096000858152602001908152602001600020600090556008805480612769577f4e487b7100000000000000000000000000000000000000000000000000000000600052603160045260246000fd5b6001900381819060005260206000200160009055905550505050565b600061279083610e1a565b905081600660008573ffffffffffffffffffffffffffffffffffffffff1673ffffffffffffffffffffffffffffffffffffffff168152602001908152602001600020600083815260200190815260200160002081905550806007600084815260200190815260200160002081905550505050565b600073ffffffffffffffffffffffffffffffffffffffff168273ffffffffffffffffffffffffffffffffffffffff161415612874576040517f08c379a000000000000000000000000000000000000000000000000000000000815260040161286b9061355e565b60405180910390fd5b61287d8161193e565b156128bd576040517f08c379a00000000000000000000000000000000000000000000000000000000081526004016128b49061345e565b60405180910390fd5b6128c960008383612186565b6001600360008473ffffffffffffffffffffffffffffffffffffffff1673ffffffffffffffffffffffffffffffffffffffff1681526020019081526020016000206000828254612919919061379c565b92505081905550816002600083815260200190815260200160002060006101000a81548173ffffffffffffffffffffffffffffffffffffffff021916908373ffffffffffffffffffffffffffffffffffffffff160217905550808273ffffffffffffffffffffffffffffffffffffffff16600073ffffffffffffffffffffffffffffffffffffffff167fddf252ad1be2c89b69c2b068fc378daa952ba7f163c4a11628f55a4df523b3ef60405160405180910390a45050565b8280546129de90613967565b90600052602060002090601f016020900481019282612a005760008555612a47565b82601f10612a1957805160ff1916838001178555612a47565b82800160010185558215612a47579182015b82811115612a46578251825591602001919060010190612a2b565b5b509050612a549190612a58565b5090565b5b80821115612a71576000816000905550600101612a59565b5090565b6000612a88612a83846136be565b613699565b905082815260208101848484011115612aa057600080fd5b612aab848285613925565b509392505050565b6000612ac6612ac1846136ef565b613699565b905082815260208101848484011115612ade57600080fd5b612ae9848285613925565b509392505050565b600081359050612b00816140fa565b92915050565b600081359050612b1581614111565b92915050565b600081359050612b2a81614128565b92915050565b600081519050612b3f81614128565b92915050565b600082601f830112612b5657600080fd5b8135612b66848260208601612a75565b91505092915050565b600082601f830112612b8057600080fd5b8135612b90848260208601612ab3565b91505092915050565b600081359050612ba88161413f565b92915050565b600060208284031215612bc057600080fd5b6000612bce84828501612af1565b91505092915050565b60008060408385031215612bea57600080fd5b6000612bf885828601612af1565b9250506020612c0985828601612af1565b9150509250929050565b600080600060608486031215612c2857600080fd5b6000612c3686828701612af1565b9350506020612c4786828701612af1565b9250506040612c5886828701612b99565b9150509250925092565b60008060008060808587031215612c7857600080fd5b6000612c8687828801612af1565b9450506020612c9787828801612af1565b9350506040612ca887828801612b99565b925050606085013567ffffffffffffffff811115612cc557600080fd5b612cd187828801612b45565b91505092959194509250565b60008060408385031215612cf057600080fd5b6000612cfe85828601612af1565b9250506020612d0f85828601612b06565b9150509250929050565b60008060408385031215612d2c57600080fd5b6000612d3a85828601612af1565b9250506020612d4b85828601612b99565b9150509250929050565b600060208284031215612d6757600080fd5b6000612d7584828501612b06565b91505092915050565b600060208284031215612d9057600080fd5b6000612d9e84828501612b1b565b91505092915050565b600060208284031215612db957600080fd5b6000612dc784828501612b30565b91505092915050565b600060208284031215612de257600080fd5b600082013567ffffffffffffffff811115612dfc57600080fd5b612e0884828501612b6f565b91505092915050565b600060208284031215612e2357600080fd5b6000612e3184828501612b99565b91505092915050565b6000612e468383613296565b60208301905092915050565b612e5b816138b1565b82525050565b6000612e6c82613730565b612e76818561375e565b9350612e8183613720565b8060005b83811015612eb2578151612e998882612e3a565b9750612ea483613751565b925050600181019050612e85565b5085935050505092915050565b612ec8816138c3565b82525050565b6000612ed98261373b565b612ee3818561376f565b9350612ef3818560208601613934565b612efc81613b00565b840191505092915050565b6000612f1282613746565b612f1c8185613780565b9350612f2c818560208601613934565b612f3581613b00565b840191505092915050565b6000612f4b82613746565b612f558185613791565b9350612f65818560208601613934565b80840191505092915050565b6000612f7e600b83613780565b9150612f8982613b11565b602082019050919050565b6000612fa1602b83613780565b9150612fac82613b3a565b604082019050919050565b6000612fc4603283613780565b9150612fcf82613b89565b604082019050919050565b6000612fe7601b83613780565b9150612ff282613bd8565b602082019050919050565b600061300a602683613780565b915061301582613c01565b604082019050919050565b600061302d601b83613780565b915061303882613c50565b602082019050919050565b6000613050601c83613780565b915061305b82613c79565b602082019050919050565b6000613073602283613780565b915061307e82613ca2565b604082019050919050565b6000613096602483613780565b91506130a182613cf1565b604082019050919050565b60006130b9601983613780565b91506130c482613d40565b602082019050919050565b60006130dc602c83613780565b91506130e782613d69565b604082019050919050565b60006130ff603883613780565b915061310a82613db8565b604082019050919050565b6000613122602a83613780565b915061312d82613e07565b604082019050919050565b6000613145602983613780565b915061315082613e56565b604082019050919050565b6000613168602083613780565b915061317382613ea5565b602082019050919050565b600061318b602c83613780565b915061319682613ece565b604082019050919050565b60006131ae602083613780565b91506131b982613f1d565b602082019050919050565b60006131d1602983613780565b91506131dc82613f46565b604082019050919050565b60006131f4602f83613780565b91506131ff82613f95565b604082019050919050565b6000613217602183613780565b915061322282613fe4565b604082019050919050565b600061323a601983613780565b915061324582614033565b602082019050919050565b600061325d603183613780565b91506132688261405c565b604082019050919050565b6000613280602c83613780565b915061328b826140ab565b604082019050919050565b61329f8161391b565b82525050565b6132ae8161391b565b82525050565b60006132c08285612f40565b91506132cc8284612f40565b91508190509392505050565b60006020820190506132ed6000830184612e52565b92915050565b60006080820190506133086000830187612e52565b6133156020830186612e52565b61332260408301856132a5565b81810360608301526133348184612ece565b905095945050505050565b600060208201905081810360008301526133598184612e61565b905092915050565b60006020820190506133766000830184612ebf565b92915050565b600060208201905081810360008301526133968184612f07565b905092915050565b600060208201905081810360008301526133b781612f71565b9050919050565b600060208201905081810360008301526133d781612f94565b9050919050565b600060208201905081810360008301526133f781612fb7565b9050919050565b6000602082019050818103600083015261341781612fda565b9050919050565b6000602082019050818103600083015261343781612ffd565b9050919050565b6000602082019050818103600083015261345781613020565b9050919050565b6000602082019050818103600083015261347781613043565b9050919050565b6000602082019050818103600083015261349781613066565b9050919050565b600060208201905081810360008301526134b781613089565b9050919050565b600060208201905081810360008301526134d7816130ac565b9050919050565b600060208201905081810360008301526134f7816130cf565b9050919050565b60006020820190508181036000830152613517816130f2565b9050919050565b6000602082019050818103600083015261353781613115565b9050919050565b6000602082019050818103600083015261355781613138565b9050919050565b600060208201905081810360008301526135778161315b565b9050919050565b600060208201905081810360008301526135978161317e565b9050919050565b600060208201905081810360008301526135b7816131a1565b9050919050565b600060208201905081810360008301526135d7816131c4565b9050919050565b600060208201905081810360008301526135f7816131e7565b9050919050565b600060208201905081810360008301526136178161320a565b9050919050565b600060208201905081810360008301526136378161322d565b9050919050565b6000602082019050818103600083015261365781613250565b9050919050565b6000602082019050818103600083015261367781613273565b9050919050565b600060208201905061369360008301846132a5565b92915050565b60006136a36136b4565b90506136af8282613999565b919050565b6000604051905090565b600067ffffffffffffffff8211156136d9576136d8613ad1565b5b6136e282613b00565b9050602081019050919050565b600067ffffffffffffffff82111561370a57613709613ad1565b5b61371382613b00565b9050602081019050919050565b6000819050602082019050919050565b600081519050919050565b600081519050919050565b600081519050919050565b6000602082019050919050565b600082825260208201905092915050565b600082825260208201905092915050565b600082825260208201905092915050565b600081905092915050565b60006137a78261391b565b91506137b28361391b565b9250827fffffffffffffffffffffffffffffffffffffffffffffffffffffffffffffffff038211156137e7576137e6613a44565b5b828201905092915050565b60006137fd8261391b565b91506138088361391b565b92508261381857613817613a73565b5b828204905092915050565b600061382e8261391b565b91506138398361391b565b9250817fffffffffffffffffffffffffffffffffffffffffffffffffffffffffffffffff048311821515161561387257613871613a44565b5b828202905092915050565b60006138888261391b565b91506138938361391b565b9250828210156138a6576138a5613a44565b5b828203905092915050565b60006138bc826138fb565b9050919050565b60008115159050919050565b60007fffffffff0000000000000000000000000000000000000000000000000000000082169050919050565b600073ffffffffffffffffffffffffffffffffffffffff82169050919050565b6000819050919050565b82818337600083830152505050565b60005b83811015613952578082015181840152602081019050613937565b83811115613961576000848401525b50505050565b6000600282049050600182168061397f57607f821691505b6020821081141561399357613992613aa2565b5b50919050565b6139a282613b00565b810181811067ffffffffffffffff821117156139c1576139c0613ad1565b5b80604052505050565b60006139d58261391b565b91507fffffffffffffffffffffffffffffffffffffffffffffffffffffffffffffffff821415613a0857613a07613a44565b5b600182019050919050565b6000613a1e8261391b565b9150613a298361391b565b925082613a3957613a38613a73565b5b828206905092915050565b7f4e487b7100000000000000000000000000000000000000000000000000000000600052601160045260246000fd5b7f4e487b7100000000000000000000000000000000000000000000000000000000600052601260045260246000fd5b7f4e487b7100000000000000000000000000000000000000000000000000000000600052602260045260246000fd5b7f4e487b7100000000000000000000000000000000000000000000000000000000600052604160045260246000fd5b6000601f19601f8301169050919050565b7f53616c6520706175736564000000000000000000000000000000000000000000600082015250565b7f455243373231456e756d657261626c653a206f776e657220696e646578206f7560008201527f74206f6620626f756e6473000000000000000000000000000000000000000000602082015250565b7f4552433732313a207472616e7366657220746f206e6f6e20455243373231526560008201527f63656976657220696d706c656d656e7465720000000000000000000000000000602082015250565b7f45786365656473206d6178696d756d204361747320737570706c790000000000600082015250565b7f4f776e61626c653a206e6577206f776e657220697320746865207a65726f206160008201527f6464726573730000000000000000000000000000000000000000000000000000602082015250565b7f457863656564732072657365727665642043617420737570706c790000000000600082015250565b7f4552433732313a20746f6b656e20616c7265616479206d696e74656400000000600082015250565b7f596f752063616e2061646f70742061206d6178696d756d206f6620323020436160008201527f7473000000000000000000000000000000000000000000000000000000000000602082015250565b7f4552433732313a207472616e7366657220746f20746865207a65726f2061646460008201527f7265737300000000000000000000000000000000000000000000000000000000602082015250565b7f4552433732313a20617070726f766520746f2063616c6c657200000000000000600082015250565b7f4552433732313a206f70657261746f7220717565727920666f72206e6f6e657860008201527f697374656e7420746f6b656e0000000000000000000000000000000000000000602082015250565b7f4552433732313a20617070726f76652063616c6c6572206973206e6f74206f7760008201527f6e6572206e6f7220617070726f76656420666f7220616c6c0000000000000000602082015250565b7f4552433732313a2062616c616e636520717565727920666f7220746865207a6560008201527f726f206164647265737300000000000000000000000000000000000000000000602082015250565b7f4552433732313a206f776e657220717565727920666f72206e6f6e657869737460008201527f656e7420746f6b656e0000000000000000000000000000000000000000000000602082015250565b7f4552433732313a206d696e7420746f20746865207a65726f2061646472657373600082015250565b7f4552433732313a20617070726f76656420717565727920666f72206e6f6e657860008201527f697374656e7420746f6b656e0000000000000000000000000000000000000000602082015250565b7f4f776e61626c653a2063616c6c6572206973206e6f7420746865206f776e6572600082015250565b7f4552433732313a207472616e73666572206f6620746f6b656e2074686174206960008201527f73206e6f74206f776e0000000000000000000000000000000000000000000000602082015250565b7f4552433732314d657461646174613a2055524920717565727920666f72206e6f60008201527f6e6578697374656e7420746f6b656e0000000000000000000000000000000000602082015250565b7f4552433732313a20617070726f76616c20746f2063757272656e74206f776e6560008201527f7200000000000000000000000000000000000000000000000000000000000000602082015250565b7f45746865722073656e74206973206e6f7420636f727265637400000000000000600082015250565b7f4552433732313a207472616e736665722063616c6c6572206973206e6f74206f60008201527f776e6572206e6f7220617070726f766564000000000000000000000000000000602082015250565b7f455243373231456e756d657261626c653a20676c6f62616c20696e646578206f60008201527f7574206f6620626f756e64730000000000000000000000000000000000000000602082015250565b614103816138b1565b811461410e57600080fd5b50565b61411a816138c3565b811461412557600080fd5b50565b614131816138cf565b811461413c57600080fd5b50565b6141488161391b565b811461415357600080fd5b5056fea2646970667358221220b7f6555e85cac545935c39edf9f390bc04999a3dffa14ed7741da5426c23d86c64736f6c63430008040033",
  "linkReferences": {},
  "deployedLinkReferences": {}
}